{"contracts/Battleship.sol":{"Battleship":{"abi":[{"constant":true,"inputs":[{"name":"","type":"uint256"}],"name":"games","outputs":[{"name":"status","type":"uint8"},{"name":"gridSize","type":"uint8"},{"name":"targetIndex","type":"uint8"},{"name":"owner","type":"address"},{"name":"challenger","type":"address"},{"name":"turn","type":"address"},{"name":"winner","type":"address"},{"name":"funds","type":"uint256"}],"payable":false,"stateMutability":"view","type":"function"},{"constant":true,"inputs":[{"name":"player","type":"address"}],"name":"getPlayerGames","outputs":[{"name":"","type":"uint256[]"}],"payable":false,"stateMutability":"view","type":"function"},{"constant":true,"inputs":[{"name":"value","type":"uint8"},{"name":"increment","type":"uint8"}],"name":"notSafeMath","outputs":[{"name":"","type":"uint8"}],"payable":false,"stateMutability":"pure","type":"function"},{"constant":false,"inputs":[],"name":"toggleEmergency","outputs":[],"payable":false,"stateMutability":"nonpayable","type":"function"},{"constant":false,"inputs":[{"name":"gameId","type":"uint256"}],"name":"withdraw","outputs":[],"payable":false,"stateMutability":"nonpayable","type":"function"},{"constant":false,"inputs":[{"name":"gridSize","type":"uint8"},{"name":"secret","type":"bytes32"}],"name":"createGame","outputs":[],"payable":true,"stateMutability":"payable","type":"function"},{"constant":true,"inputs":[],"name":"owner","outputs":[{"name":"","type":"address"}],"payable":false,"stateMutability":"view","type":"function"},{"constant":false,"inputs":[{"name":"value","type":"uint8"},{"name":"increment","type":"uint8"}],"name":"safeMath","outputs":[{"name":"","type":"uint8"}],"payable":false,"stateMutability":"nonpayable","type":"function"},{"constant":false,"inputs":[{"name":"gameId","type":"uint256"},{"name":"index","type":"uint8"}],"name":"attack","outputs":[],"payable":false,"stateMutability":"nonpayable","type":"function"},{"constant":false,"inputs":[{"name":"gameId","type":"uint256"},{"name":"index","type":"uint8"},{"name":"hit","type":"bool"}],"name":"counterAttack","outputs":[],"payable":false,"stateMutability":"nonpayable","type":"function"},{"constant":true,"inputs":[{"name":"gameId","type":"uint256"},{"name":"player","type":"address"}],"name":"getGameTarget","outputs":[{"name":"","type":"int8[]"}],"payable":false,"stateMutability":"view","type":"function"},{"constant":false,"inputs":[{"name":"gameId","type":"uint256"},{"name":"secret","type":"bytes32"}],"name":"joinGame","outputs":[],"payable":true,"stateMutability":"payable","type":"function"},{"constant":true,"inputs":[{"name":"gameId","type":"uint256"},{"name":"player","type":"address"}],"name":"getGameOcean","outputs":[{"name":"","type":"int8[]"}],"payable":false,"stateMutability":"view","type":"function"},{"constant":false,"inputs":[{"name":"gameId","type":"uint256"},{"name":"ships","type":"string"},{"name":"salt","type":"string"}],"name":"reveal","outputs":[],"payable":false,"stateMutability":"nonpayable","type":"function"},{"constant":false,"inputs":[{"name":"newOwner","type":"address"}],"name":"transferOwnership","outputs":[],"payable":false,"stateMutability":"nonpayable","type":"function"},{"anonymous":false,"inputs":[{"indexed":false,"name":"gameId","type":"uint256"},{"indexed":true,"name":"owner","type":"address"},{"indexed":false,"name":"gridSize","type":"uint8"},{"indexed":false,"name":"bet","type":"uint256"}],"name":"GameCreated","type":"event"},{"anonymous":false,"inputs":[{"indexed":false,"name":"gameId","type":"uint256"},{"indexed":true,"name":"owner","type":"address"},{"indexed":true,"name":"challenger","type":"address"},{"indexed":false,"name":"bet","type":"uint256"}],"name":"GameJoined","type":"event"},{"anonymous":false,"inputs":[{"indexed":false,"name":"gameId","type":"uint256"},{"indexed":true,"name":"attacker","type":"address"},{"indexed":true,"name":"defender","type":"address"},{"indexed":false,"name":"index","type":"uint256"}],"name":"Attack","type":"event"},{"anonymous":false,"inputs":[{"indexed":false,"name":"gameId","type":"uint256"},{"indexed":true,"name":"attacker","type":"address"},{"indexed":true,"name":"defender","type":"address"},{"indexed":false,"name":"index","type":"uint256"},{"indexed":false,"name":"hit","type":"bool"}],"name":"AttackResult","type":"event"},{"anonymous":false,"inputs":[{"indexed":false,"name":"gameId","type":"uint256"},{"indexed":true,"name":"winner","type":"address"},{"indexed":true,"name":"opponent","type":"address"},{"indexed":false,"name":"void","type":"bool"}],"name":"GameFinished","type":"event"},{"anonymous":false,"inputs":[{"indexed":false,"name":"gameId","type":"uint256"},{"indexed":true,"name":"revealer","type":"address"},{"indexed":true,"name":"opponent","type":"address"},{"indexed":false,"name":"ships","type":"string"},{"indexed":false,"name":"void","type":"bool"}],"name":"GameRevealed","type":"event"},{"anonymous":false,"inputs":[{"indexed":true,"name":"previousOwner","type":"address"},{"indexed":true,"name":"newOwner","type":"address"}],"name":"OwnershipTransferred","type":"event"}],"evm":{"bytecode":{"linkReferences":{},"object":"608060405260008054600160a060020a033316600160a860020a0319909116179055611e80806100306000396000f3006080604052600436106100da5763ffffffff7c0100000000000000000000000000000000000000000000000000000000600035041663117a5b9081146100df578063129daf84146101625780632623cabc146101d35780632d1d27441461020a5780632e1a7d4d146102215780633efd1403146102395780638da5cb5b1461024a5780638dd2937e1461027b5780639f3aa7f21461029c578063a6b65e44146102ba578063aa5a2aba146102dd578063ac95267114610301578063ca6ed7f01461030f578063dd224b9c14610333578063f2fde38b146103cf575b600080fd5b3480156100eb57600080fd5b506100f76004356103f0565b6040518089600481111561010757fe5b60ff9081168252988916602082015296909716604080880191909152600160a060020a039586166060880152938516608087015291841660a086015290921660c084015260e083019190915251908190036101000192509050f35b34801561016e57600080fd5b50610183600160a060020a036004351661045d565b60408051602080825283518183015283519192839290830191858101910280838360005b838110156101bf5781810151838201526020016101a7565b505050509050019250505060405180910390f35b3480156101df57600080fd5b506101f460ff600435811690602435166104ca565b6040805160ff9092168252519081900360200190f35b34801561021657600080fd5b5061021f6104ce565b005b34801561022d57600080fd5b5061021f60043561052c565b61021f60ff6004351660243561062b565b34801561025657600080fd5b5061025f6108d7565b60408051600160a060020a039092168252519081900360200190f35b34801561028757600080fd5b506101f460ff600435811690602435166108e6565b3480156102a857600080fd5b5061021f60043560ff60243516610906565b3480156102c657600080fd5b5061021f60043560ff6024351660443515156109d6565b3480156102e957600080fd5b50610183600435600160a060020a0360243516610d5e565b61021f600435602435610e0e565b34801561031b57600080fd5b50610183600435600160a060020a0360243516611126565b34801561033f57600080fd5b5060408051602060046024803582810135601f810185900485028601850190965285855261021f95833595369560449491939091019190819084018382808284375050604080516020601f89358b018035918201839004830284018301909452808352979a9998810197919650918201945092508291508401838280828437509497506111e59650505050505050565b3480156103db57600080fd5b5061021f600160a060020a0360043516611809565b60018054829081106103fe57fe5b60009182526020909120600990910201805460018201546002830154600384015460049094015460ff8085169650610100850481169562010000860490911694600160a060020a03630100000090910481169481169381169291169088565b600160a060020a0381166000908152600260209081526040918290208054835181840281018401909452808452606093928301828280156104bd57602002820191906000526020600020905b8154815260200190600101908083116104a9575b505050505090505b919050565b0190565b60005433600160a060020a039081169116146104e957600080fd5b6000805474ff0000000000000000000000000000000000000000198116740100000000000000000000000000000000000000009182900460ff1615909102179055565b6000816004600180548390811061053f57fe5b600091825260209091206009909102015460ff16600481111561055e57fe5b1461056857600080fd5b33600160a060020a031660018281548110151561058157fe5b6000918252602090912060036009909202010154600160a060020a0316146105a857600080fd5b60018054849081106105b657fe5b906000526020600020906009020160040154915060006001848154811015156105db57fe5b60009182526020822060046009909202010191909155604051600160a060020a0333169184156108fc02918591818181858888f19350505050158015610625573d6000803e3d6000fd5b50505050565b6000805474010000000000000000000000000000000000000000900460ff161561065457600080fd5b506001805490819061066890828101611c34565b50600060018281548110151561067a57fe5b60009182526020909120600990910201805460ff1916600183600481111561069e57fe5b0217905550826001828154811015156106b357fe5b906000526020600020906009020160000160016101000a81548160ff021916908360ff160217905550336001828154811015156106ec57fe5b906000526020600020906009020160000160036101000a815481600160a060020a030219169083600160a060020a031602179055503360018281548110151561073157fe5b906000526020600020906009020160020160006101000a815481600160a060020a030219169083600160a060020a031602179055508160018281548110151561077657fe5b9060005260206000209060090201600501600033600160a060020a0316600160a060020a0316815260200190815260200160002081600019169055506002830a60ff166040519080825280602002602001820160405280156107e2578160200160208202803883390190505b5060018054839081106107f157fe5b9060005260206000209060090201600701600033600160a060020a0316600160a060020a031681526020019081526020016000209080519060200190610838929190611c65565b503460018281548110151561084957fe5b6000918252602080832060046009909302019190910192909255600160a060020a033316808252600283526040808320805460018101825590845292849020909201849055815184815260ff8716938101939093523483830152905190917fce7afad46ab3446a50492edf65c62119da1a4def9df32e797c96b27a9470f411919081900360600190a2505050565b600054600160a060020a031681565b60006108fe60ff84811690841663ffffffff6118a116565b509192915050565b60008260018080548390811061091857fe5b600091825260209091206009909102015460ff16600481111561093757fe5b1461094157600080fd5b8360018181548110151561095157fe5b600091825260209091206002600990920201015433600160a060020a0390811691161461097d57600080fd5b61098785336118b7565b9250600260018681548110151561099a57fe5b60009182526020909120600990910201805460ff191660018360048111156109be57fe5b02179055506109cf8533858761195e565b5050505050565b6000806109e1611d0e565b6000808088600260018054839081106109f657fe5b600091825260209091206009909102015460ff166004811115610a1557fe5b14610a1f57600080fd5b89600181815481101515610a2f57fe5b600091825260209091206002600990920201015433600160a060020a03908116911614610a5b57600080fd5b610a658b336118b7565b975060018b815481101515610a7657fe5b600091825260209091206009909102015462010000900460ff16965088610a9f57600019610aa2565b60015b600180548d908110610ab057fe5b60009182526020808320600160a060020a038d168452600760099093020191909101905260409020805460ff8a16908110610ae757fe5b90600052602060002090602091828204019190066101000a81548160ff021916908360000b60ff16021790555033600160a060020a031688600160a060020a03167fa2315efec4d5e20b003e5d4f3f3b4482c0ff24139c531e2295053e20611b44a08d8a8d604051808481526020018360ff16815260200182151515158152602001935050505060405180910390a3610b828b338a8d61195e565b610c3060018c815481101515610b9457fe5b60009182526020808320600160a060020a038d168452600760099093020191909101815260409182902080548351818402810184019094528084529091830182828015610c2657602002820191906000526020600020906000905b82829054906101000a900460000b60000b81526020019060010190602082600001049283019260010382029150808411610bef5790505b5050505050611a2d565b9550610c6260018c815481101515610c4457fe5b6000918252602090912060099091020154610100900460ff16611aed565b60208701516040880151919650808714955086031192508380610c825750825b15610d5157600360018c815481101515610c9857fe5b60009182526020909120600990910201805460ff19166001836004811115610cbc57fe5b02179055508760018c815481101515610cd157fe5b600091825260209182902060099190910201600301805473ffffffffffffffffffffffffffffffffffffffff1916600160a060020a03938416179055604080518e8152861515928101929092528051338416938c16927f705a40d86da29e8665f1e99fbdfad678c2a87a93ac9bcd3d8b8a288c917b64b192908290030190a35b5050505050505050505050565b6060600183815481101515610d6f57fe5b60009182526020808320600160a060020a0386168452600760099093020191909101815260409182902080548351818402810184019094528084529091830182828015610e0157602002820191906000526020600020906000905b82829054906101000a900460000b60000b81526020019060010190602082600001049283019260010382029150808411610dca5790505b5050505050905092915050565b60005474010000000000000000000000000000000000000000900460ff1615610e3657600080fd5b8160006001805483908110610e4757fe5b600091825260209091206009909102015460ff166004811115610e6657fe5b14610e7057600080fd5b33600160a060020a0316600184815481101515610e8957fe5b600091825260209091206009909102015463010000009004600160a060020a03161415610eb557600080fd5b34600184815481101515610ec557fe5b906000526020600020906009020160040154141515610ee357600080fd5b60018084815481101515610ef357fe5b60009182526020909120600990910201805460ff19166001836004811115610f1757fe5b021790555033600184815481101515610f2c57fe5b906000526020600020906009020160010160006101000a815481600160a060020a030219169083600160a060020a0316021790555081600184815481101515610f7157fe5b60009182526020808320600160a060020a033316845260056009909302019190910190526040902055600180546002919085908110610fac57fe5b906000526020600020906009020160000160019054906101000a900460ff160a60ff16604051908082528060200260200182016040528015610ff8578160200160208202803883390190505b50600180548590811061100757fe5b9060005260206000209060090201600701600033600160a060020a0316600160a060020a03168152602001908152602001600020908051906020019061104e929190611c65565b503460018481548110151561105f57fe5b600091825260208083206004600990930201919091018054909301909255600160a060020a0333168082526002835260408220805460018181018355918452939092209092018590558054859081106110b457fe5b906000526020600020906009020160000160039054906101000a9004600160a060020a0316600160a060020a03167fb1ac9c5d841dda39836a3b9dc15b1f0081b3dbbd0eeebca5667f8efe05af38da8534604051808381526020018281526020019250505060405180910390a3505050565b6060600061113484846118b7565b905060018481548110151561114557fe5b60009182526020808320600160a060020a03851684526007600990930201919091018152604091829020805483518184028101840190945280845290918301828280156111d757602002820191906000526020600020906000905b82829054906101000a900460000b60000b815260200190600101906020826000010492830192600103820291508084116111a05790505b505050505091505092915050565b600060608180808088600360018054839081106111fe57fe5b600091825260209091206009909102015460ff16600481111561121d57fe5b1461122757600080fd5b8960018181548110151561123757fe5b600091825260209091206009909102015433600160a060020a0390811663010000009092041614806112965750600180548290811061127257fe5b600091825260209091206001600990920201015433600160a060020a039081169116145b15156112a157600080fd5b8a6001818154811015156112b157fe5b60009182526020808320600160a060020a03331684526006600990930201919091019052604090205460026000196101006001841615020190911604156112f757600080fd5b6113018b8b611b1f565b985060018c81548110151561131257fe5b60009182526020808320600160a060020a033316845260056009909302019190910190526040902054891461134657600080fd5b8a9750600096506113578c336118b7565b9550600094505b87518510156114f457878581518110151561137557fe5b9060200101517f010000000000000000000000000000000000000000000000000000000000000090047f0100000000000000000000000000000000000000000000000000000000000000027effffffffffffffffffffffffffffffffffffffffffffffffffffffffffffff19167f3000000000000000000000000000000000000000000000000000000000000000141561140e576114e9565b600180548d90811061141c57fe5b60009182526020808320600160a060020a038a16845260076009909302019190910190526040902080548690811061145057fe5b600091825260208083209082040154601f9091166101000a9004810b900b1515611479576114e9565b6001805481908e90811061148957fe5b60009182526020808320600160a060020a038b1684526007600990930201919091019052604090208054879081106114bd57fe5b600091825260208083209082040154601f9091166101000a9004810b900b14801597506114e9576114f4565b60019094019361135e565b8a60018d81548110151561150457fe5b9060005260206000209060090201600601600033600160a060020a0316600160a060020a03168152602001908152602001600020908051906020019061154b929190611d2d565b508660018d81548110151561155c57fe5b6000918252602080832033600160a060020a03168452600992909202909101600801905260408120805460ff191692151592909217909155600180548e9081106115a257fe5b60009182526020808320600160a060020a038b1684526006600990930201919091019052604090205460026000196101006001841615020190911604119350831561162257600460018d8154811015156115f857fe5b60009182526020909120600990910201805460ff1916600183600481111561161c57fe5b02179055505b861561173a5733600160a060020a031660018d81548110151561164157fe5b6000918252602090912060036009909202010154600160a060020a031614156116ab57600060018d81548110151561167557fe5b906000526020600020906009020160030160006101000a815481600160a060020a030219169083600160a060020a031602179055505b8380156116ef5750600180548d9081106116c157fe5b60009182526020808320600160a060020a038a1684526008600990930201919091019052604090205460ff16155b1561173a578560018d81548110151561170457fe5b906000526020600020906009020160030160006101000a815481600160a060020a030219169083600160a060020a031602179055505b85600160a060020a031633600160a060020a03167f465939a9cb0bde2fcec8c88d9f99ed138c947e027d3e1ddfe4159b6ed5adcd128e8e8b604051808481526020018060200183151515158152602001828103825284818151815260200191508051906020019080838360005b838110156117bf5781810151838201526020016117a7565b50505050905090810190601f1680156117ec5780820380516001836020036101000a031916815260200191505b5094505050505060405180910390a3505050505050505050505050565b60005433600160a060020a0390811691161461182457600080fd5b600160a060020a038116151561183957600080fd5b60008054604051600160a060020a03808516939216917f8be0079c531659141344cd1fd0a4f28419497f9722a3daafe3b4186f6b6457e091a36000805473ffffffffffffffffffffffffffffffffffffffff1916600160a060020a0392909216919091179055565b6000828201838110156118b057fe5b9392505050565b600081600160a060020a03166001848154811015156118d257fe5b600091825260209091206009909102015463010000009004600160a060020a03161461192c57600180548490811061190657fe5b600091825260209091206009909102015463010000009004600160a060020a03166118b0565b600180548490811061193a57fe5b6000918252602090912060016009909202010154600160a060020a03169392505050565b8060018581548110151561196e57fe5b906000526020600020906009020160000160026101000a81548160ff021916908360ff160217905550816001858154811015156119a757fe5b600091825260209182902060099190910201600201805473ffffffffffffffffffffffffffffffffffffffff1916600160a060020a039384161790556040805187815260ff8516928101929092528051858416938716927fc95238986bf335b5875cdc0a5b57b3c76a36f058a3e3cc60d1ba023b3ea175f792908290030190a350505050565b611a35611d0e565b60008080805b8551811015611acd57855160001990879083908110611a5657fe5b9060200190602002015160000b1415611a70576001909301925b8551600190879083908110611a8157fe5b9060200190602002015160000b1415611a9b576001909201915b8581815181101515611aa957fe5b9060200190602002015160000b60001415611ac5576001909101905b600101611a3b565b506040805160608101825293845260208401929092529082015292915050565b600060ff821660031415611b03575060026104c5565b60ff821660051415611b17575060086104c5565b506011919050565b600082826040516020018083805190602001908083835b60208310611b555780518252601f199092019160209182019101611b36565b51815160209384036101000a600019018019909216911617905285519190930192850191508083835b60208310611b9d5780518252601f199092019160209182019101611b7e565b6001836020036101000a038019825116818451168082178552505050505050905001925050506040516020818303038152906040526040518082805190602001908083835b60208310611c015780518252601f199092019160209182019101611be2565b5181516020939093036101000a600019018019909116921691909117905260405192018290039091209695505050505050565b815481835581811115611c6057600902816009028360005260206000209182019101611c609190611da7565b505050565b82805482825590600052602060002090601f01602090048101928215611cfe5791602002820160005b83821115611ccf57835183826101000a81548160ff021916908360000b60ff1602179055509260200192600101602081600001049283019260010302611c8e565b8015611cfc5782816101000a81549060ff0219169055600101602081600001049283019260010302611ccf565b505b50611d0a929150611e1c565b5090565b6060604051908101604052806003906020820280388339509192915050565b828054600181600116156101000203166002900490600052602060002090601f016020900481019282601f10611d6e57805160ff1916838001178555611d9b565b82800160010185558215611d9b579182015b82811115611d9b578251825591602001919060010190611d80565b50611d0a929150611e3a565b611e1991905b80821115611d0a57805476ffffffffffffffffffffffffffffffffffffffffffffff1916815560018101805473ffffffffffffffffffffffffffffffffffffffff1990811690915560028201805482169055600382018054909116905560006004820155600901611dad565b90565b611e1991905b80821115611d0a57805460ff19168155600101611e22565b611e1991905b80821115611d0a5760008155600101611e405600a165627a7a7230582058d0331d0fbfabdc27b650fef6bbf541b2e0fc12a6fb33ca832bd122035ab2b90029","opcodes":"PUSH1 0x80 PUSH1 0x40 MSTORE PUSH1 0x0 DUP1 SLOAD PUSH1 0x1 PUSH1 0xA0 PUSH1 0x2 EXP SUB CALLER AND PUSH1 0x1 PUSH1 0xA8 PUSH1 0x2 EXP SUB NOT SWAP1 SWAP2 AND OR SWAP1 SSTORE PUSH2 0x1E80 DUP1 PUSH2 0x30 PUSH1 0x0 CODECOPY PUSH1 0x0 RETURN STOP PUSH1 0x80 PUSH1 0x40 MSTORE PUSH1 0x4 CALLDATASIZE LT PUSH2 0xDA JUMPI PUSH4 0xFFFFFFFF PUSH29 0x100000000000000000000000000000000000000000000000000000000 PUSH1 0x0 CALLDATALOAD DIV AND PUSH4 0x117A5B90 DUP2 EQ PUSH2 0xDF JUMPI DUP1 PUSH4 0x129DAF84 EQ PUSH2 0x162 JUMPI DUP1 PUSH4 0x2623CABC EQ PUSH2 0x1D3 JUMPI DUP1 PUSH4 0x2D1D2744 EQ PUSH2 0x20A JUMPI DUP1 PUSH4 0x2E1A7D4D EQ PUSH2 0x221 JUMPI DUP1 PUSH4 0x3EFD1403 EQ PUSH2 0x239 JUMPI DUP1 PUSH4 0x8DA5CB5B EQ PUSH2 0x24A JUMPI DUP1 PUSH4 0x8DD2937E EQ PUSH2 0x27B JUMPI DUP1 PUSH4 0x9F3AA7F2 EQ PUSH2 0x29C JUMPI DUP1 PUSH4 0xA6B65E44 EQ PUSH2 0x2BA JUMPI DUP1 PUSH4 0xAA5A2ABA EQ PUSH2 0x2DD JUMPI DUP1 PUSH4 0xAC952671 EQ PUSH2 0x301 JUMPI DUP1 PUSH4 0xCA6ED7F0 EQ PUSH2 0x30F JUMPI DUP1 PUSH4 0xDD224B9C EQ PUSH2 0x333 JUMPI DUP1 PUSH4 0xF2FDE38B EQ PUSH2 0x3CF JUMPI JUMPDEST PUSH1 0x0 DUP1 REVERT JUMPDEST CALLVALUE DUP1 ISZERO PUSH2 0xEB JUMPI PUSH1 0x0 DUP1 REVERT JUMPDEST POP PUSH2 0xF7 PUSH1 0x4 CALLDATALOAD PUSH2 0x3F0 JUMP JUMPDEST PUSH1 0x40 MLOAD DUP1 DUP10 PUSH1 0x4 DUP2 GT ISZERO PUSH2 0x107 JUMPI INVALID JUMPDEST PUSH1 0xFF SWAP1 DUP2 AND DUP3 MSTORE SWAP9 DUP10 AND PUSH1 0x20 DUP3 ADD MSTORE SWAP7 SWAP1 SWAP8 AND PUSH1 0x40 DUP1 DUP9 ADD SWAP2 SWAP1 SWAP2 MSTORE PUSH1 0x1 PUSH1 0xA0 PUSH1 0x2 EXP SUB SWAP6 DUP7 AND PUSH1 0x60 DUP9 ADD MSTORE SWAP4 DUP6 AND PUSH1 0x80 DUP8 ADD MSTORE SWAP2 DUP5 AND PUSH1 0xA0 DUP7 ADD MSTORE SWAP1 SWAP3 AND PUSH1 0xC0 DUP5 ADD MSTORE PUSH1 0xE0 DUP4 ADD SWAP2 SWAP1 SWAP2 MSTORE MLOAD SWAP1 DUP2 SWAP1 SUB PUSH2 0x100 ADD SWAP3 POP SWAP1 POP RETURN JUMPDEST CALLVALUE DUP1 ISZERO PUSH2 0x16E JUMPI PUSH1 0x0 DUP1 REVERT JUMPDEST POP PUSH2 0x183 PUSH1 0x1 PUSH1 0xA0 PUSH1 0x2 EXP SUB PUSH1 0x4 CALLDATALOAD AND PUSH2 0x45D JUMP JUMPDEST PUSH1 0x40 DUP1 MLOAD PUSH1 0x20 DUP1 DUP3 MSTORE DUP4 MLOAD DUP2 DUP4 ADD MSTORE DUP4 MLOAD SWAP2 SWAP3 DUP4 SWAP3 SWAP1 DUP4 ADD SWAP2 DUP6 DUP2 ADD SWAP2 MUL DUP1 DUP4 DUP4 PUSH1 0x0 JUMPDEST DUP4 DUP2 LT ISZERO PUSH2 0x1BF JUMPI DUP2 DUP2 ADD MLOAD DUP4 DUP3 ADD MSTORE PUSH1 0x20 ADD PUSH2 0x1A7 JUMP JUMPDEST POP POP POP POP SWAP1 POP ADD SWAP3 POP POP POP PUSH1 0x40 MLOAD DUP1 SWAP2 SUB SWAP1 RETURN JUMPDEST CALLVALUE DUP1 ISZERO PUSH2 0x1DF JUMPI PUSH1 0x0 DUP1 REVERT JUMPDEST POP PUSH2 0x1F4 PUSH1 0xFF PUSH1 0x4 CALLDATALOAD DUP2 AND SWAP1 PUSH1 0x24 CALLDATALOAD AND PUSH2 0x4CA JUMP JUMPDEST PUSH1 0x40 DUP1 MLOAD PUSH1 0xFF SWAP1 SWAP3 AND DUP3 MSTORE MLOAD SWAP1 DUP2 SWAP1 SUB PUSH1 0x20 ADD SWAP1 RETURN JUMPDEST CALLVALUE DUP1 ISZERO PUSH2 0x216 JUMPI PUSH1 0x0 DUP1 REVERT JUMPDEST POP PUSH2 0x21F PUSH2 0x4CE JUMP JUMPDEST STOP JUMPDEST CALLVALUE DUP1 ISZERO PUSH2 0x22D JUMPI PUSH1 0x0 DUP1 REVERT JUMPDEST POP PUSH2 0x21F PUSH1 0x4 CALLDATALOAD PUSH2 0x52C JUMP JUMPDEST PUSH2 0x21F PUSH1 0xFF PUSH1 0x4 CALLDATALOAD AND PUSH1 0x24 CALLDATALOAD PUSH2 0x62B JUMP JUMPDEST CALLVALUE DUP1 ISZERO PUSH2 0x256 JUMPI PUSH1 0x0 DUP1 REVERT JUMPDEST POP PUSH2 0x25F PUSH2 0x8D7 JUMP JUMPDEST PUSH1 0x40 DUP1 MLOAD PUSH1 0x1 PUSH1 0xA0 PUSH1 0x2 EXP SUB SWAP1 SWAP3 AND DUP3 MSTORE MLOAD SWAP1 DUP2 SWAP1 SUB PUSH1 0x20 ADD SWAP1 RETURN JUMPDEST CALLVALUE DUP1 ISZERO PUSH2 0x287 JUMPI PUSH1 0x0 DUP1 REVERT JUMPDEST POP PUSH2 0x1F4 PUSH1 0xFF PUSH1 0x4 CALLDATALOAD DUP2 AND SWAP1 PUSH1 0x24 CALLDATALOAD AND PUSH2 0x8E6 JUMP JUMPDEST CALLVALUE DUP1 ISZERO PUSH2 0x2A8 JUMPI PUSH1 0x0 DUP1 REVERT JUMPDEST POP PUSH2 0x21F PUSH1 0x4 CALLDATALOAD PUSH1 0xFF PUSH1 0x24 CALLDATALOAD AND PUSH2 0x906 JUMP JUMPDEST CALLVALUE DUP1 ISZERO PUSH2 0x2C6 JUMPI PUSH1 0x0 DUP1 REVERT JUMPDEST POP PUSH2 0x21F PUSH1 0x4 CALLDATALOAD PUSH1 0xFF PUSH1 0x24 CALLDATALOAD AND PUSH1 0x44 CALLDATALOAD ISZERO ISZERO PUSH2 0x9D6 JUMP JUMPDEST CALLVALUE DUP1 ISZERO PUSH2 0x2E9 JUMPI PUSH1 0x0 DUP1 REVERT JUMPDEST POP PUSH2 0x183 PUSH1 0x4 CALLDATALOAD PUSH1 0x1 PUSH1 0xA0 PUSH1 0x2 EXP SUB PUSH1 0x24 CALLDATALOAD AND PUSH2 0xD5E JUMP JUMPDEST PUSH2 0x21F PUSH1 0x4 CALLDATALOAD PUSH1 0x24 CALLDATALOAD PUSH2 0xE0E JUMP JUMPDEST CALLVALUE DUP1 ISZERO PUSH2 0x31B JUMPI PUSH1 0x0 DUP1 REVERT JUMPDEST POP PUSH2 0x183 PUSH1 0x4 CALLDATALOAD PUSH1 0x1 PUSH1 0xA0 PUSH1 0x2 EXP SUB PUSH1 0x24 CALLDATALOAD AND PUSH2 0x1126 JUMP JUMPDEST CALLVALUE DUP1 ISZERO PUSH2 0x33F JUMPI PUSH1 0x0 DUP1 REVERT JUMPDEST POP PUSH1 0x40 DUP1 MLOAD PUSH1 0x20 PUSH1 0x4 PUSH1 0x24 DUP1 CALLDATALOAD DUP3 DUP2 ADD CALLDATALOAD PUSH1 0x1F DUP2 ADD DUP6 SWAP1 DIV DUP6 MUL DUP7 ADD DUP6 ADD SWAP1 SWAP7 MSTORE DUP6 DUP6 MSTORE PUSH2 0x21F SWAP6 DUP4 CALLDATALOAD SWAP6 CALLDATASIZE SWAP6 PUSH1 0x44 SWAP5 SWAP2 SWAP4 SWAP1 SWAP2 ADD SWAP2 SWAP1 DUP2 SWAP1 DUP5 ADD DUP4 DUP3 DUP1 DUP3 DUP5 CALLDATACOPY POP POP PUSH1 0x40 DUP1 MLOAD PUSH1 0x20 PUSH1 0x1F DUP10 CALLDATALOAD DUP12 ADD DUP1 CALLDATALOAD SWAP2 DUP3 ADD DUP4 SWAP1 DIV DUP4 MUL DUP5 ADD DUP4 ADD SWAP1 SWAP5 MSTORE DUP1 DUP4 MSTORE SWAP8 SWAP11 SWAP10 SWAP9 DUP2 ADD SWAP8 SWAP2 SWAP7 POP SWAP2 DUP3 ADD SWAP5 POP SWAP3 POP DUP3 SWAP2 POP DUP5 ADD DUP4 DUP3 DUP1 DUP3 DUP5 CALLDATACOPY POP SWAP5 SWAP8 POP PUSH2 0x11E5 SWAP7 POP POP POP POP POP POP POP JUMP JUMPDEST CALLVALUE DUP1 ISZERO PUSH2 0x3DB JUMPI PUSH1 0x0 DUP1 REVERT JUMPDEST POP PUSH2 0x21F PUSH1 0x1 PUSH1 0xA0 PUSH1 0x2 EXP SUB PUSH1 0x4 CALLDATALOAD AND PUSH2 0x1809 JUMP JUMPDEST PUSH1 0x1 DUP1 SLOAD DUP3 SWAP1 DUP2 LT PUSH2 0x3FE JUMPI INVALID JUMPDEST PUSH1 0x0 SWAP2 DUP3 MSTORE PUSH1 0x20 SWAP1 SWAP2 KECCAK256 PUSH1 0x9 SWAP1 SWAP2 MUL ADD DUP1 SLOAD PUSH1 0x1 DUP3 ADD SLOAD PUSH1 0x2 DUP4 ADD SLOAD PUSH1 0x3 DUP5 ADD SLOAD PUSH1 0x4 SWAP1 SWAP5 ADD SLOAD PUSH1 0xFF DUP1 DUP6 AND SWAP7 POP PUSH2 0x100 DUP6 DIV DUP2 AND SWAP6 PUSH3 0x10000 DUP7 DIV SWAP1 SWAP2 AND SWAP5 PUSH1 0x1 PUSH1 0xA0 PUSH1 0x2 EXP SUB PUSH4 0x1000000 SWAP1 SWAP2 DIV DUP2 AND SWAP5 DUP2 AND SWAP4 DUP2 AND SWAP3 SWAP2 AND SWAP1 DUP9 JUMP JUMPDEST PUSH1 0x1 PUSH1 0xA0 PUSH1 0x2 EXP SUB DUP2 AND PUSH1 0x0 SWAP1 DUP2 MSTORE PUSH1 0x2 PUSH1 0x20 SWAP1 DUP2 MSTORE PUSH1 0x40 SWAP2 DUP3 SWAP1 KECCAK256 DUP1 SLOAD DUP4 MLOAD DUP2 DUP5 MUL DUP2 ADD DUP5 ADD SWAP1 SWAP5 MSTORE DUP1 DUP5 MSTORE PUSH1 0x60 SWAP4 SWAP3 DUP4 ADD DUP3 DUP3 DUP1 ISZERO PUSH2 0x4BD JUMPI PUSH1 0x20 MUL DUP3 ADD SWAP2 SWAP1 PUSH1 0x0 MSTORE PUSH1 0x20 PUSH1 0x0 KECCAK256 SWAP1 JUMPDEST DUP2 SLOAD DUP2 MSTORE PUSH1 0x20 ADD SWAP1 PUSH1 0x1 ADD SWAP1 DUP1 DUP4 GT PUSH2 0x4A9 JUMPI JUMPDEST POP POP POP POP POP SWAP1 POP JUMPDEST SWAP2 SWAP1 POP JUMP JUMPDEST ADD SWAP1 JUMP JUMPDEST PUSH1 0x0 SLOAD CALLER PUSH1 0x1 PUSH1 0xA0 PUSH1 0x2 EXP SUB SWAP1 DUP2 AND SWAP2 AND EQ PUSH2 0x4E9 JUMPI PUSH1 0x0 DUP1 REVERT JUMPDEST PUSH1 0x0 DUP1 SLOAD PUSH21 0xFF0000000000000000000000000000000000000000 NOT DUP2 AND PUSH21 0x10000000000000000000000000000000000000000 SWAP2 DUP3 SWAP1 DIV PUSH1 0xFF AND ISZERO SWAP1 SWAP2 MUL OR SWAP1 SSTORE JUMP JUMPDEST PUSH1 0x0 DUP2 PUSH1 0x4 PUSH1 0x1 DUP1 SLOAD DUP4 SWAP1 DUP2 LT PUSH2 0x53F JUMPI INVALID JUMPDEST PUSH1 0x0 SWAP2 DUP3 MSTORE PUSH1 0x20 SWAP1 SWAP2 KECCAK256 PUSH1 0x9 SWAP1 SWAP2 MUL ADD SLOAD PUSH1 0xFF AND PUSH1 0x4 DUP2 GT ISZERO PUSH2 0x55E JUMPI INVALID JUMPDEST EQ PUSH2 0x568 JUMPI PUSH1 0x0 DUP1 REVERT JUMPDEST CALLER PUSH1 0x1 PUSH1 0xA0 PUSH1 0x2 EXP SUB AND PUSH1 0x1 DUP3 DUP2 SLOAD DUP2 LT ISZERO ISZERO PUSH2 0x581 JUMPI INVALID JUMPDEST PUSH1 0x0 SWAP2 DUP3 MSTORE PUSH1 0x20 SWAP1 SWAP2 KECCAK256 PUSH1 0x3 PUSH1 0x9 SWAP1 SWAP3 MUL ADD ADD SLOAD PUSH1 0x1 PUSH1 0xA0 PUSH1 0x2 EXP SUB AND EQ PUSH2 0x5A8 JUMPI PUSH1 0x0 DUP1 REVERT JUMPDEST PUSH1 0x1 DUP1 SLOAD DUP5 SWAP1 DUP2 LT PUSH2 0x5B6 JUMPI INVALID JUMPDEST SWAP1 PUSH1 0x0 MSTORE PUSH1 0x20 PUSH1 0x0 KECCAK256 SWAP1 PUSH1 0x9 MUL ADD PUSH1 0x4 ADD SLOAD SWAP2 POP PUSH1 0x0 PUSH1 0x1 DUP5 DUP2 SLOAD DUP2 LT ISZERO ISZERO PUSH2 0x5DB JUMPI INVALID JUMPDEST PUSH1 0x0 SWAP2 DUP3 MSTORE PUSH1 0x20 DUP3 KECCAK256 PUSH1 0x4 PUSH1 0x9 SWAP1 SWAP3 MUL ADD ADD SWAP2 SWAP1 SWAP2 SSTORE PUSH1 0x40 MLOAD PUSH1 0x1 PUSH1 0xA0 PUSH1 0x2 EXP SUB CALLER AND SWAP2 DUP5 ISZERO PUSH2 0x8FC MUL SWAP2 DUP6 SWAP2 DUP2 DUP2 DUP2 DUP6 DUP9 DUP9 CALL SWAP4 POP POP POP POP ISZERO DUP1 ISZERO PUSH2 0x625 JUMPI RETURNDATASIZE PUSH1 0x0 DUP1 RETURNDATACOPY RETURNDATASIZE PUSH1 0x0 REVERT JUMPDEST POP POP POP POP JUMP JUMPDEST PUSH1 0x0 DUP1 SLOAD PUSH21 0x10000000000000000000000000000000000000000 SWAP1 DIV PUSH1 0xFF AND ISZERO PUSH2 0x654 JUMPI PUSH1 0x0 DUP1 REVERT JUMPDEST POP PUSH1 0x1 DUP1 SLOAD SWAP1 DUP2 SWAP1 PUSH2 0x668 SWAP1 DUP3 DUP2 ADD PUSH2 0x1C34 JUMP JUMPDEST POP PUSH1 0x0 PUSH1 0x1 DUP3 DUP2 SLOAD DUP2 LT ISZERO ISZERO PUSH2 0x67A JUMPI INVALID JUMPDEST PUSH1 0x0 SWAP2 DUP3 MSTORE PUSH1 0x20 SWAP1 SWAP2 KECCAK256 PUSH1 0x9 SWAP1 SWAP2 MUL ADD DUP1 SLOAD PUSH1 0xFF NOT AND PUSH1 0x1 DUP4 PUSH1 0x4 DUP2 GT ISZERO PUSH2 0x69E JUMPI INVALID JUMPDEST MUL OR SWAP1 SSTORE POP DUP3 PUSH1 0x1 DUP3 DUP2 SLOAD DUP2 LT ISZERO ISZERO PUSH2 0x6B3 JUMPI INVALID JUMPDEST SWAP1 PUSH1 0x0 MSTORE PUSH1 0x20 PUSH1 0x0 KECCAK256 SWAP1 PUSH1 0x9 MUL ADD PUSH1 0x0 ADD PUSH1 0x1 PUSH2 0x100 EXP DUP2 SLOAD DUP2 PUSH1 0xFF MUL NOT AND SWAP1 DUP4 PUSH1 0xFF AND MUL OR SWAP1 SSTORE POP CALLER PUSH1 0x1 DUP3 DUP2 SLOAD DUP2 LT ISZERO ISZERO PUSH2 0x6EC JUMPI INVALID JUMPDEST SWAP1 PUSH1 0x0 MSTORE PUSH1 0x20 PUSH1 0x0 KECCAK256 SWAP1 PUSH1 0x9 MUL ADD PUSH1 0x0 ADD PUSH1 0x3 PUSH2 0x100 EXP DUP2 SLOAD DUP2 PUSH1 0x1 PUSH1 0xA0 PUSH1 0x2 EXP SUB MUL NOT AND SWAP1 DUP4 PUSH1 0x1 PUSH1 0xA0 PUSH1 0x2 EXP SUB AND MUL OR SWAP1 SSTORE POP CALLER PUSH1 0x1 DUP3 DUP2 SLOAD DUP2 LT ISZERO ISZERO PUSH2 0x731 JUMPI INVALID JUMPDEST SWAP1 PUSH1 0x0 MSTORE PUSH1 0x20 PUSH1 0x0 KECCAK256 SWAP1 PUSH1 0x9 MUL ADD PUSH1 0x2 ADD PUSH1 0x0 PUSH2 0x100 EXP DUP2 SLOAD DUP2 PUSH1 0x1 PUSH1 0xA0 PUSH1 0x2 EXP SUB MUL NOT AND SWAP1 DUP4 PUSH1 0x1 PUSH1 0xA0 PUSH1 0x2 EXP SUB AND MUL OR SWAP1 SSTORE POP DUP2 PUSH1 0x1 DUP3 DUP2 SLOAD DUP2 LT ISZERO ISZERO PUSH2 0x776 JUMPI INVALID JUMPDEST SWAP1 PUSH1 0x0 MSTORE PUSH1 0x20 PUSH1 0x0 KECCAK256 SWAP1 PUSH1 0x9 MUL ADD PUSH1 0x5 ADD PUSH1 0x0 CALLER PUSH1 0x1 PUSH1 0xA0 PUSH1 0x2 EXP SUB AND PUSH1 0x1 PUSH1 0xA0 PUSH1 0x2 EXP SUB AND DUP2 MSTORE PUSH1 0x20 ADD SWAP1 DUP2 MSTORE PUSH1 0x20 ADD PUSH1 0x0 KECCAK256 DUP2 PUSH1 0x0 NOT AND SWAP1 SSTORE POP PUSH1 0x2 DUP4 EXP PUSH1 0xFF AND PUSH1 0x40 MLOAD SWAP1 DUP1 DUP3 MSTORE DUP1 PUSH1 0x20 MUL PUSH1 0x20 ADD DUP3 ADD PUSH1 0x40 MSTORE DUP1 ISZERO PUSH2 0x7E2 JUMPI DUP2 PUSH1 0x20 ADD PUSH1 0x20 DUP3 MUL DUP1 CODESIZE DUP4 CODECOPY ADD SWAP1 POP JUMPDEST POP PUSH1 0x1 DUP1 SLOAD DUP4 SWAP1 DUP2 LT PUSH2 0x7F1 JUMPI INVALID JUMPDEST SWAP1 PUSH1 0x0 MSTORE PUSH1 0x20 PUSH1 0x0 KECCAK256 SWAP1 PUSH1 0x9 MUL ADD PUSH1 0x7 ADD PUSH1 0x0 CALLER PUSH1 0x1 PUSH1 0xA0 PUSH1 0x2 EXP SUB AND PUSH1 0x1 PUSH1 0xA0 PUSH1 0x2 EXP SUB AND DUP2 MSTORE PUSH1 0x20 ADD SWAP1 DUP2 MSTORE PUSH1 0x20 ADD PUSH1 0x0 KECCAK256 SWAP1 DUP1 MLOAD SWAP1 PUSH1 0x20 ADD SWAP1 PUSH2 0x838 SWAP3 SWAP2 SWAP1 PUSH2 0x1C65 JUMP JUMPDEST POP CALLVALUE PUSH1 0x1 DUP3 DUP2 SLOAD DUP2 LT ISZERO ISZERO PUSH2 0x849 JUMPI INVALID JUMPDEST PUSH1 0x0 SWAP2 DUP3 MSTORE PUSH1 0x20 DUP1 DUP4 KECCAK256 PUSH1 0x4 PUSH1 0x9 SWAP1 SWAP4 MUL ADD SWAP2 SWAP1 SWAP2 ADD SWAP3 SWAP1 SWAP3 SSTORE PUSH1 0x1 PUSH1 0xA0 PUSH1 0x2 EXP SUB CALLER AND DUP1 DUP3 MSTORE PUSH1 0x2 DUP4 MSTORE PUSH1 0x40 DUP1 DUP4 KECCAK256 DUP1 SLOAD PUSH1 0x1 DUP2 ADD DUP3 SSTORE SWAP1 DUP5 MSTORE SWAP3 DUP5 SWAP1 KECCAK256 SWAP1 SWAP3 ADD DUP5 SWAP1 SSTORE DUP2 MLOAD DUP5 DUP2 MSTORE PUSH1 0xFF DUP8 AND SWAP4 DUP2 ADD SWAP4 SWAP1 SWAP4 MSTORE CALLVALUE DUP4 DUP4 ADD MSTORE SWAP1 MLOAD SWAP1 SWAP2 PUSH32 0xCE7AFAD46AB3446A50492EDF65C62119DA1A4DEF9DF32E797C96B27A9470F411 SWAP2 SWAP1 DUP2 SWAP1 SUB PUSH1 0x60 ADD SWAP1 LOG2 POP POP POP JUMP JUMPDEST PUSH1 0x0 SLOAD PUSH1 0x1 PUSH1 0xA0 PUSH1 0x2 EXP SUB AND DUP2 JUMP JUMPDEST PUSH1 0x0 PUSH2 0x8FE PUSH1 0xFF DUP5 DUP2 AND SWAP1 DUP5 AND PUSH4 0xFFFFFFFF PUSH2 0x18A1 AND JUMP JUMPDEST POP SWAP2 SWAP3 SWAP2 POP POP JUMP JUMPDEST PUSH1 0x0 DUP3 PUSH1 0x1 DUP1 DUP1 SLOAD DUP4 SWAP1 DUP2 LT PUSH2 0x918 JUMPI INVALID JUMPDEST PUSH1 0x0 SWAP2 DUP3 MSTORE PUSH1 0x20 SWAP1 SWAP2 KECCAK256 PUSH1 0x9 SWAP1 SWAP2 MUL ADD SLOAD PUSH1 0xFF AND PUSH1 0x4 DUP2 GT ISZERO PUSH2 0x937 JUMPI INVALID JUMPDEST EQ PUSH2 0x941 JUMPI PUSH1 0x0 DUP1 REVERT JUMPDEST DUP4 PUSH1 0x1 DUP2 DUP2 SLOAD DUP2 LT ISZERO ISZERO PUSH2 0x951 JUMPI INVALID JUMPDEST PUSH1 0x0 SWAP2 DUP3 MSTORE PUSH1 0x20 SWAP1 SWAP2 KECCAK256 PUSH1 0x2 PUSH1 0x9 SWAP1 SWAP3 MUL ADD ADD SLOAD CALLER PUSH1 0x1 PUSH1 0xA0 PUSH1 0x2 EXP SUB SWAP1 DUP2 AND SWAP2 AND EQ PUSH2 0x97D JUMPI PUSH1 0x0 DUP1 REVERT JUMPDEST PUSH2 0x987 DUP6 CALLER PUSH2 0x18B7 JUMP JUMPDEST SWAP3 POP PUSH1 0x2 PUSH1 0x1 DUP7 DUP2 SLOAD DUP2 LT ISZERO ISZERO PUSH2 0x99A JUMPI INVALID JUMPDEST PUSH1 0x0 SWAP2 DUP3 MSTORE PUSH1 0x20 SWAP1 SWAP2 KECCAK256 PUSH1 0x9 SWAP1 SWAP2 MUL ADD DUP1 SLOAD PUSH1 0xFF NOT AND PUSH1 0x1 DUP4 PUSH1 0x4 DUP2 GT ISZERO PUSH2 0x9BE JUMPI INVALID JUMPDEST MUL OR SWAP1 SSTORE POP PUSH2 0x9CF DUP6 CALLER DUP6 DUP8 PUSH2 0x195E JUMP JUMPDEST POP POP POP POP POP JUMP JUMPDEST PUSH1 0x0 DUP1 PUSH2 0x9E1 PUSH2 0x1D0E JUMP JUMPDEST PUSH1 0x0 DUP1 DUP1 DUP9 PUSH1 0x2 PUSH1 0x1 DUP1 SLOAD DUP4 SWAP1 DUP2 LT PUSH2 0x9F6 JUMPI INVALID JUMPDEST PUSH1 0x0 SWAP2 DUP3 MSTORE PUSH1 0x20 SWAP1 SWAP2 KECCAK256 PUSH1 0x9 SWAP1 SWAP2 MUL ADD SLOAD PUSH1 0xFF AND PUSH1 0x4 DUP2 GT ISZERO PUSH2 0xA15 JUMPI INVALID JUMPDEST EQ PUSH2 0xA1F JUMPI PUSH1 0x0 DUP1 REVERT JUMPDEST DUP10 PUSH1 0x1 DUP2 DUP2 SLOAD DUP2 LT ISZERO ISZERO PUSH2 0xA2F JUMPI INVALID JUMPDEST PUSH1 0x0 SWAP2 DUP3 MSTORE PUSH1 0x20 SWAP1 SWAP2 KECCAK256 PUSH1 0x2 PUSH1 0x9 SWAP1 SWAP3 MUL ADD ADD SLOAD CALLER PUSH1 0x1 PUSH1 0xA0 PUSH1 0x2 EXP SUB SWAP1 DUP2 AND SWAP2 AND EQ PUSH2 0xA5B JUMPI PUSH1 0x0 DUP1 REVERT JUMPDEST PUSH2 0xA65 DUP12 CALLER PUSH2 0x18B7 JUMP JUMPDEST SWAP8 POP PUSH1 0x1 DUP12 DUP2 SLOAD DUP2 LT ISZERO ISZERO PUSH2 0xA76 JUMPI INVALID JUMPDEST PUSH1 0x0 SWAP2 DUP3 MSTORE PUSH1 0x20 SWAP1 SWAP2 KECCAK256 PUSH1 0x9 SWAP1 SWAP2 MUL ADD SLOAD PUSH3 0x10000 SWAP1 DIV PUSH1 0xFF AND SWAP7 POP DUP9 PUSH2 0xA9F JUMPI PUSH1 0x0 NOT PUSH2 0xAA2 JUMP JUMPDEST PUSH1 0x1 JUMPDEST PUSH1 0x1 DUP1 SLOAD DUP14 SWAP1 DUP2 LT PUSH2 0xAB0 JUMPI INVALID JUMPDEST PUSH1 0x0 SWAP2 DUP3 MSTORE PUSH1 0x20 DUP1 DUP4 KECCAK256 PUSH1 0x1 PUSH1 0xA0 PUSH1 0x2 EXP SUB DUP14 AND DUP5 MSTORE PUSH1 0x7 PUSH1 0x9 SWAP1 SWAP4 MUL ADD SWAP2 SWAP1 SWAP2 ADD SWAP1 MSTORE PUSH1 0x40 SWAP1 KECCAK256 DUP1 SLOAD PUSH1 0xFF DUP11 AND SWAP1 DUP2 LT PUSH2 0xAE7 JUMPI INVALID JUMPDEST SWAP1 PUSH1 0x0 MSTORE PUSH1 0x20 PUSH1 0x0 KECCAK256 SWAP1 PUSH1 0x20 SWAP2 DUP3 DUP3 DIV ADD SWAP2 SWAP1 MOD PUSH2 0x100 EXP DUP2 SLOAD DUP2 PUSH1 0xFF MUL NOT AND SWAP1 DUP4 PUSH1 0x0 SIGNEXTEND PUSH1 0xFF AND MUL OR SWAP1 SSTORE POP CALLER PUSH1 0x1 PUSH1 0xA0 PUSH1 0x2 EXP SUB AND DUP9 PUSH1 0x1 PUSH1 0xA0 PUSH1 0x2 EXP SUB AND PUSH32 0xA2315EFEC4D5E20B003E5D4F3F3B4482C0FF24139C531E2295053E20611B44A0 DUP14 DUP11 DUP14 PUSH1 0x40 MLOAD DUP1 DUP5 DUP2 MSTORE PUSH1 0x20 ADD DUP4 PUSH1 0xFF AND DUP2 MSTORE PUSH1 0x20 ADD DUP3 ISZERO ISZERO ISZERO ISZERO DUP2 MSTORE PUSH1 0x20 ADD SWAP4 POP POP POP POP PUSH1 0x40 MLOAD DUP1 SWAP2 SUB SWAP1 LOG3 PUSH2 0xB82 DUP12 CALLER DUP11 DUP14 PUSH2 0x195E JUMP JUMPDEST PUSH2 0xC30 PUSH1 0x1 DUP13 DUP2 SLOAD DUP2 LT ISZERO ISZERO PUSH2 0xB94 JUMPI INVALID JUMPDEST PUSH1 0x0 SWAP2 DUP3 MSTORE PUSH1 0x20 DUP1 DUP4 KECCAK256 PUSH1 0x1 PUSH1 0xA0 PUSH1 0x2 EXP SUB DUP14 AND DUP5 MSTORE PUSH1 0x7 PUSH1 0x9 SWAP1 SWAP4 MUL ADD SWAP2 SWAP1 SWAP2 ADD DUP2 MSTORE PUSH1 0x40 SWAP2 DUP3 SWAP1 KECCAK256 DUP1 SLOAD DUP4 MLOAD DUP2 DUP5 MUL DUP2 ADD DUP5 ADD SWAP1 SWAP5 MSTORE DUP1 DUP5 MSTORE SWAP1 SWAP2 DUP4 ADD DUP3 DUP3 DUP1 ISZERO PUSH2 0xC26 JUMPI PUSH1 0x20 MUL DUP3 ADD SWAP2 SWAP1 PUSH1 0x0 MSTORE PUSH1 0x20 PUSH1 0x0 KECCAK256 SWAP1 PUSH1 0x0 SWAP1 JUMPDEST DUP3 DUP3 SWAP1 SLOAD SWAP1 PUSH2 0x100 EXP SWAP1 DIV PUSH1 0x0 SIGNEXTEND PUSH1 0x0 SIGNEXTEND DUP2 MSTORE PUSH1 0x20 ADD SWAP1 PUSH1 0x1 ADD SWAP1 PUSH1 0x20 DUP3 PUSH1 0x0 ADD DIV SWAP3 DUP4 ADD SWAP3 PUSH1 0x1 SUB DUP3 MUL SWAP2 POP DUP1 DUP5 GT PUSH2 0xBEF JUMPI SWAP1 POP JUMPDEST POP POP POP POP POP PUSH2 0x1A2D JUMP JUMPDEST SWAP6 POP PUSH2 0xC62 PUSH1 0x1 DUP13 DUP2 SLOAD DUP2 LT ISZERO ISZERO PUSH2 0xC44 JUMPI INVALID JUMPDEST PUSH1 0x0 SWAP2 DUP3 MSTORE PUSH1 0x20 SWAP1 SWAP2 KECCAK256 PUSH1 0x9 SWAP1 SWAP2 MUL ADD SLOAD PUSH2 0x100 SWAP1 DIV PUSH1 0xFF AND PUSH2 0x1AED JUMP JUMPDEST PUSH1 0x20 DUP8 ADD MLOAD PUSH1 0x40 DUP9 ADD MLOAD SWAP2 SWAP7 POP DUP1 DUP8 EQ SWAP6 POP DUP7 SUB GT SWAP3 POP DUP4 DUP1 PUSH2 0xC82 JUMPI POP DUP3 JUMPDEST ISZERO PUSH2 0xD51 JUMPI PUSH1 0x3 PUSH1 0x1 DUP13 DUP2 SLOAD DUP2 LT ISZERO ISZERO PUSH2 0xC98 JUMPI INVALID JUMPDEST PUSH1 0x0 SWAP2 DUP3 MSTORE PUSH1 0x20 SWAP1 SWAP2 KECCAK256 PUSH1 0x9 SWAP1 SWAP2 MUL ADD DUP1 SLOAD PUSH1 0xFF NOT AND PUSH1 0x1 DUP4 PUSH1 0x4 DUP2 GT ISZERO PUSH2 0xCBC JUMPI INVALID JUMPDEST MUL OR SWAP1 SSTORE POP DUP8 PUSH1 0x1 DUP13 DUP2 SLOAD DUP2 LT ISZERO ISZERO PUSH2 0xCD1 JUMPI INVALID JUMPDEST PUSH1 0x0 SWAP2 DUP3 MSTORE PUSH1 0x20 SWAP2 DUP3 SWAP1 KECCAK256 PUSH1 0x9 SWAP2 SWAP1 SWAP2 MUL ADD PUSH1 0x3 ADD DUP1 SLOAD PUSH20 0xFFFFFFFFFFFFFFFFFFFFFFFFFFFFFFFFFFFFFFFF NOT AND PUSH1 0x1 PUSH1 0xA0 PUSH1 0x2 EXP SUB SWAP4 DUP5 AND OR SWAP1 SSTORE PUSH1 0x40 DUP1 MLOAD DUP15 DUP2 MSTORE DUP7 ISZERO ISZERO SWAP3 DUP2 ADD SWAP3 SWAP1 SWAP3 MSTORE DUP1 MLOAD CALLER DUP5 AND SWAP4 DUP13 AND SWAP3 PUSH32 0x705A40D86DA29E8665F1E99FBDFAD678C2A87A93AC9BCD3D8B8A288C917B64B1 SWAP3 SWAP1 DUP3 SWAP1 SUB ADD SWAP1 LOG3 JUMPDEST POP POP POP POP POP POP POP POP POP POP POP JUMP JUMPDEST PUSH1 0x60 PUSH1 0x1 DUP4 DUP2 SLOAD DUP2 LT ISZERO ISZERO PUSH2 0xD6F JUMPI INVALID JUMPDEST PUSH1 0x0 SWAP2 DUP3 MSTORE PUSH1 0x20 DUP1 DUP4 KECCAK256 PUSH1 0x1 PUSH1 0xA0 PUSH1 0x2 EXP SUB DUP7 AND DUP5 MSTORE PUSH1 0x7 PUSH1 0x9 SWAP1 SWAP4 MUL ADD SWAP2 SWAP1 SWAP2 ADD DUP2 MSTORE PUSH1 0x40 SWAP2 DUP3 SWAP1 KECCAK256 DUP1 SLOAD DUP4 MLOAD DUP2 DUP5 MUL DUP2 ADD DUP5 ADD SWAP1 SWAP5 MSTORE DUP1 DUP5 MSTORE SWAP1 SWAP2 DUP4 ADD DUP3 DUP3 DUP1 ISZERO PUSH2 0xE01 JUMPI PUSH1 0x20 MUL DUP3 ADD SWAP2 SWAP1 PUSH1 0x0 MSTORE PUSH1 0x20 PUSH1 0x0 KECCAK256 SWAP1 PUSH1 0x0 SWAP1 JUMPDEST DUP3 DUP3 SWAP1 SLOAD SWAP1 PUSH2 0x100 EXP SWAP1 DIV PUSH1 0x0 SIGNEXTEND PUSH1 0x0 SIGNEXTEND DUP2 MSTORE PUSH1 0x20 ADD SWAP1 PUSH1 0x1 ADD SWAP1 PUSH1 0x20 DUP3 PUSH1 0x0 ADD DIV SWAP3 DUP4 ADD SWAP3 PUSH1 0x1 SUB DUP3 MUL SWAP2 POP DUP1 DUP5 GT PUSH2 0xDCA JUMPI SWAP1 POP JUMPDEST POP POP POP POP POP SWAP1 POP SWAP3 SWAP2 POP POP JUMP JUMPDEST PUSH1 0x0 SLOAD PUSH21 0x10000000000000000000000000000000000000000 SWAP1 DIV PUSH1 0xFF AND ISZERO PUSH2 0xE36 JUMPI PUSH1 0x0 DUP1 REVERT JUMPDEST DUP2 PUSH1 0x0 PUSH1 0x1 DUP1 SLOAD DUP4 SWAP1 DUP2 LT PUSH2 0xE47 JUMPI INVALID JUMPDEST PUSH1 0x0 SWAP2 DUP3 MSTORE PUSH1 0x20 SWAP1 SWAP2 KECCAK256 PUSH1 0x9 SWAP1 SWAP2 MUL ADD SLOAD PUSH1 0xFF AND PUSH1 0x4 DUP2 GT ISZERO PUSH2 0xE66 JUMPI INVALID JUMPDEST EQ PUSH2 0xE70 JUMPI PUSH1 0x0 DUP1 REVERT JUMPDEST CALLER PUSH1 0x1 PUSH1 0xA0 PUSH1 0x2 EXP SUB AND PUSH1 0x1 DUP5 DUP2 SLOAD DUP2 LT ISZERO ISZERO PUSH2 0xE89 JUMPI INVALID JUMPDEST PUSH1 0x0 SWAP2 DUP3 MSTORE PUSH1 0x20 SWAP1 SWAP2 KECCAK256 PUSH1 0x9 SWAP1 SWAP2 MUL ADD SLOAD PUSH4 0x1000000 SWAP1 DIV PUSH1 0x1 PUSH1 0xA0 PUSH1 0x2 EXP SUB AND EQ ISZERO PUSH2 0xEB5 JUMPI PUSH1 0x0 DUP1 REVERT JUMPDEST CALLVALUE PUSH1 0x1 DUP5 DUP2 SLOAD DUP2 LT ISZERO ISZERO PUSH2 0xEC5 JUMPI INVALID JUMPDEST SWAP1 PUSH1 0x0 MSTORE PUSH1 0x20 PUSH1 0x0 KECCAK256 SWAP1 PUSH1 0x9 MUL ADD PUSH1 0x4 ADD SLOAD EQ ISZERO ISZERO PUSH2 0xEE3 JUMPI PUSH1 0x0 DUP1 REVERT JUMPDEST PUSH1 0x1 DUP1 DUP5 DUP2 SLOAD DUP2 LT ISZERO ISZERO PUSH2 0xEF3 JUMPI INVALID JUMPDEST PUSH1 0x0 SWAP2 DUP3 MSTORE PUSH1 0x20 SWAP1 SWAP2 KECCAK256 PUSH1 0x9 SWAP1 SWAP2 MUL ADD DUP1 SLOAD PUSH1 0xFF NOT AND PUSH1 0x1 DUP4 PUSH1 0x4 DUP2 GT ISZERO PUSH2 0xF17 JUMPI INVALID JUMPDEST MUL OR SWAP1 SSTORE POP CALLER PUSH1 0x1 DUP5 DUP2 SLOAD DUP2 LT ISZERO ISZERO PUSH2 0xF2C JUMPI INVALID JUMPDEST SWAP1 PUSH1 0x0 MSTORE PUSH1 0x20 PUSH1 0x0 KECCAK256 SWAP1 PUSH1 0x9 MUL ADD PUSH1 0x1 ADD PUSH1 0x0 PUSH2 0x100 EXP DUP2 SLOAD DUP2 PUSH1 0x1 PUSH1 0xA0 PUSH1 0x2 EXP SUB MUL NOT AND SWAP1 DUP4 PUSH1 0x1 PUSH1 0xA0 PUSH1 0x2 EXP SUB AND MUL OR SWAP1 SSTORE POP DUP2 PUSH1 0x1 DUP5 DUP2 SLOAD DUP2 LT ISZERO ISZERO PUSH2 0xF71 JUMPI INVALID JUMPDEST PUSH1 0x0 SWAP2 DUP3 MSTORE PUSH1 0x20 DUP1 DUP4 KECCAK256 PUSH1 0x1 PUSH1 0xA0 PUSH1 0x2 EXP SUB CALLER AND DUP5 MSTORE PUSH1 0x5 PUSH1 0x9 SWAP1 SWAP4 MUL ADD SWAP2 SWAP1 SWAP2 ADD SWAP1 MSTORE PUSH1 0x40 SWAP1 KECCAK256 SSTORE PUSH1 0x1 DUP1 SLOAD PUSH1 0x2 SWAP2 SWAP1 DUP6 SWAP1 DUP2 LT PUSH2 0xFAC JUMPI INVALID JUMPDEST SWAP1 PUSH1 0x0 MSTORE PUSH1 0x20 PUSH1 0x0 KECCAK256 SWAP1 PUSH1 0x9 MUL ADD PUSH1 0x0 ADD PUSH1 0x1 SWAP1 SLOAD SWAP1 PUSH2 0x100 EXP SWAP1 DIV PUSH1 0xFF AND EXP PUSH1 0xFF AND PUSH1 0x40 MLOAD SWAP1 DUP1 DUP3 MSTORE DUP1 PUSH1 0x20 MUL PUSH1 0x20 ADD DUP3 ADD PUSH1 0x40 MSTORE DUP1 ISZERO PUSH2 0xFF8 JUMPI DUP2 PUSH1 0x20 ADD PUSH1 0x20 DUP3 MUL DUP1 CODESIZE DUP4 CODECOPY ADD SWAP1 POP JUMPDEST POP PUSH1 0x1 DUP1 SLOAD DUP6 SWAP1 DUP2 LT PUSH2 0x1007 JUMPI INVALID JUMPDEST SWAP1 PUSH1 0x0 MSTORE PUSH1 0x20 PUSH1 0x0 KECCAK256 SWAP1 PUSH1 0x9 MUL ADD PUSH1 0x7 ADD PUSH1 0x0 CALLER PUSH1 0x1 PUSH1 0xA0 PUSH1 0x2 EXP SUB AND PUSH1 0x1 PUSH1 0xA0 PUSH1 0x2 EXP SUB AND DUP2 MSTORE PUSH1 0x20 ADD SWAP1 DUP2 MSTORE PUSH1 0x20 ADD PUSH1 0x0 KECCAK256 SWAP1 DUP1 MLOAD SWAP1 PUSH1 0x20 ADD SWAP1 PUSH2 0x104E SWAP3 SWAP2 SWAP1 PUSH2 0x1C65 JUMP JUMPDEST POP CALLVALUE PUSH1 0x1 DUP5 DUP2 SLOAD DUP2 LT ISZERO ISZERO PUSH2 0x105F JUMPI INVALID JUMPDEST PUSH1 0x0 SWAP2 DUP3 MSTORE PUSH1 0x20 DUP1 DUP4 KECCAK256 PUSH1 0x4 PUSH1 0x9 SWAP1 SWAP4 MUL ADD SWAP2 SWAP1 SWAP2 ADD DUP1 SLOAD SWAP1 SWAP4 ADD SWAP1 SWAP3 SSTORE PUSH1 0x1 PUSH1 0xA0 PUSH1 0x2 EXP SUB CALLER AND DUP1 DUP3 MSTORE PUSH1 0x2 DUP4 MSTORE PUSH1 0x40 DUP3 KECCAK256 DUP1 SLOAD PUSH1 0x1 DUP2 DUP2 ADD DUP4 SSTORE SWAP2 DUP5 MSTORE SWAP4 SWAP1 SWAP3 KECCAK256 SWAP1 SWAP3 ADD DUP6 SWAP1 SSTORE DUP1 SLOAD DUP6 SWAP1 DUP2 LT PUSH2 0x10B4 JUMPI INVALID JUMPDEST SWAP1 PUSH1 0x0 MSTORE PUSH1 0x20 PUSH1 0x0 KECCAK256 SWAP1 PUSH1 0x9 MUL ADD PUSH1 0x0 ADD PUSH1 0x3 SWAP1 SLOAD SWAP1 PUSH2 0x100 EXP SWAP1 DIV PUSH1 0x1 PUSH1 0xA0 PUSH1 0x2 EXP SUB AND PUSH1 0x1 PUSH1 0xA0 PUSH1 0x2 EXP SUB AND PUSH32 0xB1AC9C5D841DDA39836A3B9DC15B1F0081B3DBBD0EEEBCA5667F8EFE05AF38DA DUP6 CALLVALUE PUSH1 0x40 MLOAD DUP1 DUP4 DUP2 MSTORE PUSH1 0x20 ADD DUP3 DUP2 MSTORE PUSH1 0x20 ADD SWAP3 POP POP POP PUSH1 0x40 MLOAD DUP1 SWAP2 SUB SWAP1 LOG3 POP POP POP JUMP JUMPDEST PUSH1 0x60 PUSH1 0x0 PUSH2 0x1134 DUP5 DUP5 PUSH2 0x18B7 JUMP JUMPDEST SWAP1 POP PUSH1 0x1 DUP5 DUP2 SLOAD DUP2 LT ISZERO ISZERO PUSH2 0x1145 JUMPI INVALID JUMPDEST PUSH1 0x0 SWAP2 DUP3 MSTORE PUSH1 0x20 DUP1 DUP4 KECCAK256 PUSH1 0x1 PUSH1 0xA0 PUSH1 0x2 EXP SUB DUP6 AND DUP5 MSTORE PUSH1 0x7 PUSH1 0x9 SWAP1 SWAP4 MUL ADD SWAP2 SWAP1 SWAP2 ADD DUP2 MSTORE PUSH1 0x40 SWAP2 DUP3 SWAP1 KECCAK256 DUP1 SLOAD DUP4 MLOAD DUP2 DUP5 MUL DUP2 ADD DUP5 ADD SWAP1 SWAP5 MSTORE DUP1 DUP5 MSTORE SWAP1 SWAP2 DUP4 ADD DUP3 DUP3 DUP1 ISZERO PUSH2 0x11D7 JUMPI PUSH1 0x20 MUL DUP3 ADD SWAP2 SWAP1 PUSH1 0x0 MSTORE PUSH1 0x20 PUSH1 0x0 KECCAK256 SWAP1 PUSH1 0x0 SWAP1 JUMPDEST DUP3 DUP3 SWAP1 SLOAD SWAP1 PUSH2 0x100 EXP SWAP1 DIV PUSH1 0x0 SIGNEXTEND PUSH1 0x0 SIGNEXTEND DUP2 MSTORE PUSH1 0x20 ADD SWAP1 PUSH1 0x1 ADD SWAP1 PUSH1 0x20 DUP3 PUSH1 0x0 ADD DIV SWAP3 DUP4 ADD SWAP3 PUSH1 0x1 SUB DUP3 MUL SWAP2 POP DUP1 DUP5 GT PUSH2 0x11A0 JUMPI SWAP1 POP JUMPDEST POP POP POP POP POP SWAP2 POP POP SWAP3 SWAP2 POP POP JUMP JUMPDEST PUSH1 0x0 PUSH1 0x60 DUP2 DUP1 DUP1 DUP1 DUP9 PUSH1 0x3 PUSH1 0x1 DUP1 SLOAD DUP4 SWAP1 DUP2 LT PUSH2 0x11FE JUMPI INVALID JUMPDEST PUSH1 0x0 SWAP2 DUP3 MSTORE PUSH1 0x20 SWAP1 SWAP2 KECCAK256 PUSH1 0x9 SWAP1 SWAP2 MUL ADD SLOAD PUSH1 0xFF AND PUSH1 0x4 DUP2 GT ISZERO PUSH2 0x121D JUMPI INVALID JUMPDEST EQ PUSH2 0x1227 JUMPI PUSH1 0x0 DUP1 REVERT JUMPDEST DUP10 PUSH1 0x1 DUP2 DUP2 SLOAD DUP2 LT ISZERO ISZERO PUSH2 0x1237 JUMPI INVALID JUMPDEST PUSH1 0x0 SWAP2 DUP3 MSTORE PUSH1 0x20 SWAP1 SWAP2 KECCAK256 PUSH1 0x9 SWAP1 SWAP2 MUL ADD SLOAD CALLER PUSH1 0x1 PUSH1 0xA0 PUSH1 0x2 EXP SUB SWAP1 DUP2 AND PUSH4 0x1000000 SWAP1 SWAP3 DIV AND EQ DUP1 PUSH2 0x1296 JUMPI POP PUSH1 0x1 DUP1 SLOAD DUP3 SWAP1 DUP2 LT PUSH2 0x1272 JUMPI INVALID JUMPDEST PUSH1 0x0 SWAP2 DUP3 MSTORE PUSH1 0x20 SWAP1 SWAP2 KECCAK256 PUSH1 0x1 PUSH1 0x9 SWAP1 SWAP3 MUL ADD ADD SLOAD CALLER PUSH1 0x1 PUSH1 0xA0 PUSH1 0x2 EXP SUB SWAP1 DUP2 AND SWAP2 AND EQ JUMPDEST ISZERO ISZERO PUSH2 0x12A1 JUMPI PUSH1 0x0 DUP1 REVERT JUMPDEST DUP11 PUSH1 0x1 DUP2 DUP2 SLOAD DUP2 LT ISZERO ISZERO PUSH2 0x12B1 JUMPI INVALID JUMPDEST PUSH1 0x0 SWAP2 DUP3 MSTORE PUSH1 0x20 DUP1 DUP4 KECCAK256 PUSH1 0x1 PUSH1 0xA0 PUSH1 0x2 EXP SUB CALLER AND DUP5 MSTORE PUSH1 0x6 PUSH1 0x9 SWAP1 SWAP4 MUL ADD SWAP2 SWAP1 SWAP2 ADD SWAP1 MSTORE PUSH1 0x40 SWAP1 KECCAK256 SLOAD PUSH1 0x2 PUSH1 0x0 NOT PUSH2 0x100 PUSH1 0x1 DUP5 AND ISZERO MUL ADD SWAP1 SWAP2 AND DIV ISZERO PUSH2 0x12F7 JUMPI PUSH1 0x0 DUP1 REVERT JUMPDEST PUSH2 0x1301 DUP12 DUP12 PUSH2 0x1B1F JUMP JUMPDEST SWAP9 POP PUSH1 0x1 DUP13 DUP2 SLOAD DUP2 LT ISZERO ISZERO PUSH2 0x1312 JUMPI INVALID JUMPDEST PUSH1 0x0 SWAP2 DUP3 MSTORE PUSH1 0x20 DUP1 DUP4 KECCAK256 PUSH1 0x1 PUSH1 0xA0 PUSH1 0x2 EXP SUB CALLER AND DUP5 MSTORE PUSH1 0x5 PUSH1 0x9 SWAP1 SWAP4 MUL ADD SWAP2 SWAP1 SWAP2 ADD SWAP1 MSTORE PUSH1 0x40 SWAP1 KECCAK256 SLOAD DUP10 EQ PUSH2 0x1346 JUMPI PUSH1 0x0 DUP1 REVERT JUMPDEST DUP11 SWAP8 POP PUSH1 0x0 SWAP7 POP PUSH2 0x1357 DUP13 CALLER PUSH2 0x18B7 JUMP JUMPDEST SWAP6 POP PUSH1 0x0 SWAP5 POP JUMPDEST DUP8 MLOAD DUP6 LT ISZERO PUSH2 0x14F4 JUMPI DUP8 DUP6 DUP2 MLOAD DUP2 LT ISZERO ISZERO PUSH2 0x1375 JUMPI INVALID JUMPDEST SWAP1 PUSH1 0x20 ADD ADD MLOAD PUSH32 0x100000000000000000000000000000000000000000000000000000000000000 SWAP1 DIV PUSH32 0x100000000000000000000000000000000000000000000000000000000000000 MUL PUSH31 0xFFFFFFFFFFFFFFFFFFFFFFFFFFFFFFFFFFFFFFFFFFFFFFFFFFFFFFFFFFFFFF NOT AND PUSH32 0x3000000000000000000000000000000000000000000000000000000000000000 EQ ISZERO PUSH2 0x140E JUMPI PUSH2 0x14E9 JUMP JUMPDEST PUSH1 0x1 DUP1 SLOAD DUP14 SWAP1 DUP2 LT PUSH2 0x141C JUMPI INVALID JUMPDEST PUSH1 0x0 SWAP2 DUP3 MSTORE PUSH1 0x20 DUP1 DUP4 KECCAK256 PUSH1 0x1 PUSH1 0xA0 PUSH1 0x2 EXP SUB DUP11 AND DUP5 MSTORE PUSH1 0x7 PUSH1 0x9 SWAP1 SWAP4 MUL ADD SWAP2 SWAP1 SWAP2 ADD SWAP1 MSTORE PUSH1 0x40 SWAP1 KECCAK256 DUP1 SLOAD DUP7 SWAP1 DUP2 LT PUSH2 0x1450 JUMPI INVALID JUMPDEST PUSH1 0x0 SWAP2 DUP3 MSTORE PUSH1 0x20 DUP1 DUP4 KECCAK256 SWAP1 DUP3 DIV ADD SLOAD PUSH1 0x1F SWAP1 SWAP2 AND PUSH2 0x100 EXP SWAP1 DIV DUP2 SIGNEXTEND SWAP1 SIGNEXTEND ISZERO ISZERO PUSH2 0x1479 JUMPI PUSH2 0x14E9 JUMP JUMPDEST PUSH1 0x1 DUP1 SLOAD DUP2 SWAP1 DUP15 SWAP1 DUP2 LT PUSH2 0x1489 JUMPI INVALID JUMPDEST PUSH1 0x0 SWAP2 DUP3 MSTORE PUSH1 0x20 DUP1 DUP4 KECCAK256 PUSH1 0x1 PUSH1 0xA0 PUSH1 0x2 EXP SUB DUP12 AND DUP5 MSTORE PUSH1 0x7 PUSH1 0x9 SWAP1 SWAP4 MUL ADD SWAP2 SWAP1 SWAP2 ADD SWAP1 MSTORE PUSH1 0x40 SWAP1 KECCAK256 DUP1 SLOAD DUP8 SWAP1 DUP2 LT PUSH2 0x14BD JUMPI INVALID JUMPDEST PUSH1 0x0 SWAP2 DUP3 MSTORE PUSH1 0x20 DUP1 DUP4 KECCAK256 SWAP1 DUP3 DIV ADD SLOAD PUSH1 0x1F SWAP1 SWAP2 AND PUSH2 0x100 EXP SWAP1 DIV DUP2 SIGNEXTEND SWAP1 SIGNEXTEND EQ DUP1 ISZERO SWAP8 POP PUSH2 0x14E9 JUMPI PUSH2 0x14F4 JUMP JUMPDEST PUSH1 0x1 SWAP1 SWAP5 ADD SWAP4 PUSH2 0x135E JUMP JUMPDEST DUP11 PUSH1 0x1 DUP14 DUP2 SLOAD DUP2 LT ISZERO ISZERO PUSH2 0x1504 JUMPI INVALID JUMPDEST SWAP1 PUSH1 0x0 MSTORE PUSH1 0x20 PUSH1 0x0 KECCAK256 SWAP1 PUSH1 0x9 MUL ADD PUSH1 0x6 ADD PUSH1 0x0 CALLER PUSH1 0x1 PUSH1 0xA0 PUSH1 0x2 EXP SUB AND PUSH1 0x1 PUSH1 0xA0 PUSH1 0x2 EXP SUB AND DUP2 MSTORE PUSH1 0x20 ADD SWAP1 DUP2 MSTORE PUSH1 0x20 ADD PUSH1 0x0 KECCAK256 SWAP1 DUP1 MLOAD SWAP1 PUSH1 0x20 ADD SWAP1 PUSH2 0x154B SWAP3 SWAP2 SWAP1 PUSH2 0x1D2D JUMP JUMPDEST POP DUP7 PUSH1 0x1 DUP14 DUP2 SLOAD DUP2 LT ISZERO ISZERO PUSH2 0x155C JUMPI INVALID JUMPDEST PUSH1 0x0 SWAP2 DUP3 MSTORE PUSH1 0x20 DUP1 DUP4 KECCAK256 CALLER PUSH1 0x1 PUSH1 0xA0 PUSH1 0x2 EXP SUB AND DUP5 MSTORE PUSH1 0x9 SWAP3 SWAP1 SWAP3 MUL SWAP1 SWAP2 ADD PUSH1 0x8 ADD SWAP1 MSTORE PUSH1 0x40 DUP2 KECCAK256 DUP1 SLOAD PUSH1 0xFF NOT AND SWAP3 ISZERO ISZERO SWAP3 SWAP1 SWAP3 OR SWAP1 SWAP2 SSTORE PUSH1 0x1 DUP1 SLOAD DUP15 SWAP1 DUP2 LT PUSH2 0x15A2 JUMPI INVALID JUMPDEST PUSH1 0x0 SWAP2 DUP3 MSTORE PUSH1 0x20 DUP1 DUP4 KECCAK256 PUSH1 0x1 PUSH1 0xA0 PUSH1 0x2 EXP SUB DUP12 AND DUP5 MSTORE PUSH1 0x6 PUSH1 0x9 SWAP1 SWAP4 MUL ADD SWAP2 SWAP1 SWAP2 ADD SWAP1 MSTORE PUSH1 0x40 SWAP1 KECCAK256 SLOAD PUSH1 0x2 PUSH1 0x0 NOT PUSH2 0x100 PUSH1 0x1 DUP5 AND ISZERO MUL ADD SWAP1 SWAP2 AND DIV GT SWAP4 POP DUP4 ISZERO PUSH2 0x1622 JUMPI PUSH1 0x4 PUSH1 0x1 DUP14 DUP2 SLOAD DUP2 LT ISZERO ISZERO PUSH2 0x15F8 JUMPI INVALID JUMPDEST PUSH1 0x0 SWAP2 DUP3 MSTORE PUSH1 0x20 SWAP1 SWAP2 KECCAK256 PUSH1 0x9 SWAP1 SWAP2 MUL ADD DUP1 SLOAD PUSH1 0xFF NOT AND PUSH1 0x1 DUP4 PUSH1 0x4 DUP2 GT ISZERO PUSH2 0x161C JUMPI INVALID JUMPDEST MUL OR SWAP1 SSTORE POP JUMPDEST DUP7 ISZERO PUSH2 0x173A JUMPI CALLER PUSH1 0x1 PUSH1 0xA0 PUSH1 0x2 EXP SUB AND PUSH1 0x1 DUP14 DUP2 SLOAD DUP2 LT ISZERO ISZERO PUSH2 0x1641 JUMPI INVALID JUMPDEST PUSH1 0x0 SWAP2 DUP3 MSTORE PUSH1 0x20 SWAP1 SWAP2 KECCAK256 PUSH1 0x3 PUSH1 0x9 SWAP1 SWAP3 MUL ADD ADD SLOAD PUSH1 0x1 PUSH1 0xA0 PUSH1 0x2 EXP SUB AND EQ ISZERO PUSH2 0x16AB JUMPI PUSH1 0x0 PUSH1 0x1 DUP14 DUP2 SLOAD DUP2 LT ISZERO ISZERO PUSH2 0x1675 JUMPI INVALID JUMPDEST SWAP1 PUSH1 0x0 MSTORE PUSH1 0x20 PUSH1 0x0 KECCAK256 SWAP1 PUSH1 0x9 MUL ADD PUSH1 0x3 ADD PUSH1 0x0 PUSH2 0x100 EXP DUP2 SLOAD DUP2 PUSH1 0x1 PUSH1 0xA0 PUSH1 0x2 EXP SUB MUL NOT AND SWAP1 DUP4 PUSH1 0x1 PUSH1 0xA0 PUSH1 0x2 EXP SUB AND MUL OR SWAP1 SSTORE POP JUMPDEST DUP4 DUP1 ISZERO PUSH2 0x16EF JUMPI POP PUSH1 0x1 DUP1 SLOAD DUP14 SWAP1 DUP2 LT PUSH2 0x16C1 JUMPI INVALID JUMPDEST PUSH1 0x0 SWAP2 DUP3 MSTORE PUSH1 0x20 DUP1 DUP4 KECCAK256 PUSH1 0x1 PUSH1 0xA0 PUSH1 0x2 EXP SUB DUP11 AND DUP5 MSTORE PUSH1 0x8 PUSH1 0x9 SWAP1 SWAP4 MUL ADD SWAP2 SWAP1 SWAP2 ADD SWAP1 MSTORE PUSH1 0x40 SWAP1 KECCAK256 SLOAD PUSH1 0xFF AND ISZERO JUMPDEST ISZERO PUSH2 0x173A JUMPI DUP6 PUSH1 0x1 DUP14 DUP2 SLOAD DUP2 LT ISZERO ISZERO PUSH2 0x1704 JUMPI INVALID JUMPDEST SWAP1 PUSH1 0x0 MSTORE PUSH1 0x20 PUSH1 0x0 KECCAK256 SWAP1 PUSH1 0x9 MUL ADD PUSH1 0x3 ADD PUSH1 0x0 PUSH2 0x100 EXP DUP2 SLOAD DUP2 PUSH1 0x1 PUSH1 0xA0 PUSH1 0x2 EXP SUB MUL NOT AND SWAP1 DUP4 PUSH1 0x1 PUSH1 0xA0 PUSH1 0x2 EXP SUB AND MUL OR SWAP1 SSTORE POP JUMPDEST DUP6 PUSH1 0x1 PUSH1 0xA0 PUSH1 0x2 EXP SUB AND CALLER PUSH1 0x1 PUSH1 0xA0 PUSH1 0x2 EXP SUB AND PUSH32 0x465939A9CB0BDE2FCEC8C88D9F99ED138C947E027D3E1DDFE4159B6ED5ADCD12 DUP15 DUP15 DUP12 PUSH1 0x40 MLOAD DUP1 DUP5 DUP2 MSTORE PUSH1 0x20 ADD DUP1 PUSH1 0x20 ADD DUP4 ISZERO ISZERO ISZERO ISZERO DUP2 MSTORE PUSH1 0x20 ADD DUP3 DUP2 SUB DUP3 MSTORE DUP5 DUP2 DUP2 MLOAD DUP2 MSTORE PUSH1 0x20 ADD SWAP2 POP DUP1 MLOAD SWAP1 PUSH1 0x20 ADD SWAP1 DUP1 DUP4 DUP4 PUSH1 0x0 JUMPDEST DUP4 DUP2 LT ISZERO PUSH2 0x17BF JUMPI DUP2 DUP2 ADD MLOAD DUP4 DUP3 ADD MSTORE PUSH1 0x20 ADD PUSH2 0x17A7 JUMP JUMPDEST POP POP POP POP SWAP1 POP SWAP1 DUP2 ADD SWAP1 PUSH1 0x1F AND DUP1 ISZERO PUSH2 0x17EC JUMPI DUP1 DUP3 SUB DUP1 MLOAD PUSH1 0x1 DUP4 PUSH1 0x20 SUB PUSH2 0x100 EXP SUB NOT AND DUP2 MSTORE PUSH1 0x20 ADD SWAP2 POP JUMPDEST POP SWAP5 POP POP POP POP POP PUSH1 0x40 MLOAD DUP1 SWAP2 SUB SWAP1 LOG3 POP POP POP POP POP POP POP POP POP POP POP POP JUMP JUMPDEST PUSH1 0x0 SLOAD CALLER PUSH1 0x1 PUSH1 0xA0 PUSH1 0x2 EXP SUB SWAP1 DUP2 AND SWAP2 AND EQ PUSH2 0x1824 JUMPI PUSH1 0x0 DUP1 REVERT JUMPDEST PUSH1 0x1 PUSH1 0xA0 PUSH1 0x2 EXP SUB DUP2 AND ISZERO ISZERO PUSH2 0x1839 JUMPI PUSH1 0x0 DUP1 REVERT JUMPDEST PUSH1 0x0 DUP1 SLOAD PUSH1 0x40 MLOAD PUSH1 0x1 PUSH1 0xA0 PUSH1 0x2 EXP SUB DUP1 DUP6 AND SWAP4 SWAP3 AND SWAP2 PUSH32 0x8BE0079C531659141344CD1FD0A4F28419497F9722A3DAAFE3B4186F6B6457E0 SWAP2 LOG3 PUSH1 0x0 DUP1 SLOAD PUSH20 0xFFFFFFFFFFFFFFFFFFFFFFFFFFFFFFFFFFFFFFFF NOT AND PUSH1 0x1 PUSH1 0xA0 PUSH1 0x2 EXP SUB SWAP3 SWAP1 SWAP3 AND SWAP2 SWAP1 SWAP2 OR SWAP1 SSTORE JUMP JUMPDEST PUSH1 0x0 DUP3 DUP3 ADD DUP4 DUP2 LT ISZERO PUSH2 0x18B0 JUMPI INVALID JUMPDEST SWAP4 SWAP3 POP POP POP JUMP JUMPDEST PUSH1 0x0 DUP2 PUSH1 0x1 PUSH1 0xA0 PUSH1 0x2 EXP SUB AND PUSH1 0x1 DUP5 DUP2 SLOAD DUP2 LT ISZERO ISZERO PUSH2 0x18D2 JUMPI INVALID JUMPDEST PUSH1 0x0 SWAP2 DUP3 MSTORE PUSH1 0x20 SWAP1 SWAP2 KECCAK256 PUSH1 0x9 SWAP1 SWAP2 MUL ADD SLOAD PUSH4 0x1000000 SWAP1 DIV PUSH1 0x1 PUSH1 0xA0 PUSH1 0x2 EXP SUB AND EQ PUSH2 0x192C JUMPI PUSH1 0x1 DUP1 SLOAD DUP5 SWAP1 DUP2 LT PUSH2 0x1906 JUMPI INVALID JUMPDEST PUSH1 0x0 SWAP2 DUP3 MSTORE PUSH1 0x20 SWAP1 SWAP2 KECCAK256 PUSH1 0x9 SWAP1 SWAP2 MUL ADD SLOAD PUSH4 0x1000000 SWAP1 DIV PUSH1 0x1 PUSH1 0xA0 PUSH1 0x2 EXP SUB AND PUSH2 0x18B0 JUMP JUMPDEST PUSH1 0x1 DUP1 SLOAD DUP5 SWAP1 DUP2 LT PUSH2 0x193A JUMPI INVALID JUMPDEST PUSH1 0x0 SWAP2 DUP3 MSTORE PUSH1 0x20 SWAP1 SWAP2 KECCAK256 PUSH1 0x1 PUSH1 0x9 SWAP1 SWAP3 MUL ADD ADD SLOAD PUSH1 0x1 PUSH1 0xA0 PUSH1 0x2 EXP SUB AND SWAP4 SWAP3 POP POP POP JUMP JUMPDEST DUP1 PUSH1 0x1 DUP6 DUP2 SLOAD DUP2 LT ISZERO ISZERO PUSH2 0x196E JUMPI INVALID JUMPDEST SWAP1 PUSH1 0x0 MSTORE PUSH1 0x20 PUSH1 0x0 KECCAK256 SWAP1 PUSH1 0x9 MUL ADD PUSH1 0x0 ADD PUSH1 0x2 PUSH2 0x100 EXP DUP2 SLOAD DUP2 PUSH1 0xFF MUL NOT AND SWAP1 DUP4 PUSH1 0xFF AND MUL OR SWAP1 SSTORE POP DUP2 PUSH1 0x1 DUP6 DUP2 SLOAD DUP2 LT ISZERO ISZERO PUSH2 0x19A7 JUMPI INVALID JUMPDEST PUSH1 0x0 SWAP2 DUP3 MSTORE PUSH1 0x20 SWAP2 DUP3 SWAP1 KECCAK256 PUSH1 0x9 SWAP2 SWAP1 SWAP2 MUL ADD PUSH1 0x2 ADD DUP1 SLOAD PUSH20 0xFFFFFFFFFFFFFFFFFFFFFFFFFFFFFFFFFFFFFFFF NOT AND PUSH1 0x1 PUSH1 0xA0 PUSH1 0x2 EXP SUB SWAP4 DUP5 AND OR SWAP1 SSTORE PUSH1 0x40 DUP1 MLOAD DUP8 DUP2 MSTORE PUSH1 0xFF DUP6 AND SWAP3 DUP2 ADD SWAP3 SWAP1 SWAP3 MSTORE DUP1 MLOAD DUP6 DUP5 AND SWAP4 DUP8 AND SWAP3 PUSH32 0xC95238986BF335B5875CDC0A5B57B3C76A36F058A3E3CC60D1BA023B3EA175F7 SWAP3 SWAP1 DUP3 SWAP1 SUB ADD SWAP1 LOG3 POP POP POP POP JUMP JUMPDEST PUSH2 0x1A35 PUSH2 0x1D0E JUMP JUMPDEST PUSH1 0x0 DUP1 DUP1 DUP1 JUMPDEST DUP6 MLOAD DUP2 LT ISZERO PUSH2 0x1ACD JUMPI DUP6 MLOAD PUSH1 0x0 NOT SWAP1 DUP8 SWAP1 DUP4 SWAP1 DUP2 LT PUSH2 0x1A56 JUMPI INVALID JUMPDEST SWAP1 PUSH1 0x20 ADD SWAP1 PUSH1 0x20 MUL ADD MLOAD PUSH1 0x0 SIGNEXTEND EQ ISZERO PUSH2 0x1A70 JUMPI PUSH1 0x1 SWAP1 SWAP4 ADD SWAP3 JUMPDEST DUP6 MLOAD PUSH1 0x1 SWAP1 DUP8 SWAP1 DUP4 SWAP1 DUP2 LT PUSH2 0x1A81 JUMPI INVALID JUMPDEST SWAP1 PUSH1 0x20 ADD SWAP1 PUSH1 0x20 MUL ADD MLOAD PUSH1 0x0 SIGNEXTEND EQ ISZERO PUSH2 0x1A9B JUMPI PUSH1 0x1 SWAP1 SWAP3 ADD SWAP2 JUMPDEST DUP6 DUP2 DUP2 MLOAD DUP2 LT ISZERO ISZERO PUSH2 0x1AA9 JUMPI INVALID JUMPDEST SWAP1 PUSH1 0x20 ADD SWAP1 PUSH1 0x20 MUL ADD MLOAD PUSH1 0x0 SIGNEXTEND PUSH1 0x0 EQ ISZERO PUSH2 0x1AC5 JUMPI PUSH1 0x1 SWAP1 SWAP2 ADD SWAP1 JUMPDEST PUSH1 0x1 ADD PUSH2 0x1A3B JUMP JUMPDEST POP PUSH1 0x40 DUP1 MLOAD PUSH1 0x60 DUP2 ADD DUP3 MSTORE SWAP4 DUP5 MSTORE PUSH1 0x20 DUP5 ADD SWAP3 SWAP1 SWAP3 MSTORE SWAP1 DUP3 ADD MSTORE SWAP3 SWAP2 POP POP JUMP JUMPDEST PUSH1 0x0 PUSH1 0xFF DUP3 AND PUSH1 0x3 EQ ISZERO PUSH2 0x1B03 JUMPI POP PUSH1 0x2 PUSH2 0x4C5 JUMP JUMPDEST PUSH1 0xFF DUP3 AND PUSH1 0x5 EQ ISZERO PUSH2 0x1B17 JUMPI POP PUSH1 0x8 PUSH2 0x4C5 JUMP JUMPDEST POP PUSH1 0x11 SWAP2 SWAP1 POP JUMP JUMPDEST PUSH1 0x0 DUP3 DUP3 PUSH1 0x40 MLOAD PUSH1 0x20 ADD DUP1 DUP4 DUP1 MLOAD SWAP1 PUSH1 0x20 ADD SWAP1 DUP1 DUP4 DUP4 JUMPDEST PUSH1 0x20 DUP4 LT PUSH2 0x1B55 JUMPI DUP1 MLOAD DUP3 MSTORE PUSH1 0x1F NOT SWAP1 SWAP3 ADD SWAP2 PUSH1 0x20 SWAP2 DUP3 ADD SWAP2 ADD PUSH2 0x1B36 JUMP JUMPDEST MLOAD DUP2 MLOAD PUSH1 0x20 SWAP4 DUP5 SUB PUSH2 0x100 EXP PUSH1 0x0 NOT ADD DUP1 NOT SWAP1 SWAP3 AND SWAP2 AND OR SWAP1 MSTORE DUP6 MLOAD SWAP2 SWAP1 SWAP4 ADD SWAP3 DUP6 ADD SWAP2 POP DUP1 DUP4 DUP4 JUMPDEST PUSH1 0x20 DUP4 LT PUSH2 0x1B9D JUMPI DUP1 MLOAD DUP3 MSTORE PUSH1 0x1F NOT SWAP1 SWAP3 ADD SWAP2 PUSH1 0x20 SWAP2 DUP3 ADD SWAP2 ADD PUSH2 0x1B7E JUMP JUMPDEST PUSH1 0x1 DUP4 PUSH1 0x20 SUB PUSH2 0x100 EXP SUB DUP1 NOT DUP3 MLOAD AND DUP2 DUP5 MLOAD AND DUP1 DUP3 OR DUP6 MSTORE POP POP POP POP POP POP SWAP1 POP ADD SWAP3 POP POP POP PUSH1 0x40 MLOAD PUSH1 0x20 DUP2 DUP4 SUB SUB DUP2 MSTORE SWAP1 PUSH1 0x40 MSTORE PUSH1 0x40 MLOAD DUP1 DUP3 DUP1 MLOAD SWAP1 PUSH1 0x20 ADD SWAP1 DUP1 DUP4 DUP4 JUMPDEST PUSH1 0x20 DUP4 LT PUSH2 0x1C01 JUMPI DUP1 MLOAD DUP3 MSTORE PUSH1 0x1F NOT SWAP1 SWAP3 ADD SWAP2 PUSH1 0x20 SWAP2 DUP3 ADD SWAP2 ADD PUSH2 0x1BE2 JUMP JUMPDEST MLOAD DUP2 MLOAD PUSH1 0x20 SWAP4 SWAP1 SWAP4 SUB PUSH2 0x100 EXP PUSH1 0x0 NOT ADD DUP1 NOT SWAP1 SWAP2 AND SWAP3 AND SWAP2 SWAP1 SWAP2 OR SWAP1 MSTORE PUSH1 0x40 MLOAD SWAP3 ADD DUP3 SWAP1 SUB SWAP1 SWAP2 KECCAK256 SWAP7 SWAP6 POP POP POP POP POP POP JUMP JUMPDEST DUP2 SLOAD DUP2 DUP4 SSTORE DUP2 DUP2 GT ISZERO PUSH2 0x1C60 JUMPI PUSH1 0x9 MUL DUP2 PUSH1 0x9 MUL DUP4 PUSH1 0x0 MSTORE PUSH1 0x20 PUSH1 0x0 KECCAK256 SWAP2 DUP3 ADD SWAP2 ADD PUSH2 0x1C60 SWAP2 SWAP1 PUSH2 0x1DA7 JUMP JUMPDEST POP POP POP JUMP JUMPDEST DUP3 DUP1 SLOAD DUP3 DUP3 SSTORE SWAP1 PUSH1 0x0 MSTORE PUSH1 0x20 PUSH1 0x0 KECCAK256 SWAP1 PUSH1 0x1F ADD PUSH1 0x20 SWAP1 DIV DUP2 ADD SWAP3 DUP3 ISZERO PUSH2 0x1CFE JUMPI SWAP2 PUSH1 0x20 MUL DUP3 ADD PUSH1 0x0 JUMPDEST DUP4 DUP3 GT ISZERO PUSH2 0x1CCF JUMPI DUP4 MLOAD DUP4 DUP3 PUSH2 0x100 EXP DUP2 SLOAD DUP2 PUSH1 0xFF MUL NOT AND SWAP1 DUP4 PUSH1 0x0 SIGNEXTEND PUSH1 0xFF AND MUL OR SWAP1 SSTORE POP SWAP3 PUSH1 0x20 ADD SWAP3 PUSH1 0x1 ADD PUSH1 0x20 DUP2 PUSH1 0x0 ADD DIV SWAP3 DUP4 ADD SWAP3 PUSH1 0x1 SUB MUL PUSH2 0x1C8E JUMP JUMPDEST DUP1 ISZERO PUSH2 0x1CFC JUMPI DUP3 DUP2 PUSH2 0x100 EXP DUP2 SLOAD SWAP1 PUSH1 0xFF MUL NOT AND SWAP1 SSTORE PUSH1 0x1 ADD PUSH1 0x20 DUP2 PUSH1 0x0 ADD DIV SWAP3 DUP4 ADD SWAP3 PUSH1 0x1 SUB MUL PUSH2 0x1CCF JUMP JUMPDEST POP JUMPDEST POP PUSH2 0x1D0A SWAP3 SWAP2 POP PUSH2 0x1E1C JUMP JUMPDEST POP SWAP1 JUMP JUMPDEST PUSH1 0x60 PUSH1 0x40 MLOAD SWAP1 DUP2 ADD PUSH1 0x40 MSTORE DUP1 PUSH1 0x3 SWAP1 PUSH1 0x20 DUP3 MUL DUP1 CODESIZE DUP4 CODECOPY POP SWAP2 SWAP3 SWAP2 POP POP JUMP JUMPDEST DUP3 DUP1 SLOAD PUSH1 0x1 DUP2 PUSH1 0x1 AND ISZERO PUSH2 0x100 MUL SUB AND PUSH1 0x2 SWAP1 DIV SWAP1 PUSH1 0x0 MSTORE PUSH1 0x20 PUSH1 0x0 KECCAK256 SWAP1 PUSH1 0x1F ADD PUSH1 0x20 SWAP1 DIV DUP2 ADD SWAP3 DUP3 PUSH1 0x1F LT PUSH2 0x1D6E JUMPI DUP1 MLOAD PUSH1 0xFF NOT AND DUP4 DUP1 ADD OR DUP6 SSTORE PUSH2 0x1D9B JUMP JUMPDEST DUP3 DUP1 ADD PUSH1 0x1 ADD DUP6 SSTORE DUP3 ISZERO PUSH2 0x1D9B JUMPI SWAP2 DUP3 ADD JUMPDEST DUP3 DUP2 GT ISZERO PUSH2 0x1D9B JUMPI DUP3 MLOAD DUP3 SSTORE SWAP2 PUSH1 0x20 ADD SWAP2 SWAP1 PUSH1 0x1 ADD SWAP1 PUSH2 0x1D80 JUMP JUMPDEST POP PUSH2 0x1D0A SWAP3 SWAP2 POP PUSH2 0x1E3A JUMP JUMPDEST PUSH2 0x1E19 SWAP2 SWAP1 JUMPDEST DUP1 DUP3 GT ISZERO PUSH2 0x1D0A JUMPI DUP1 SLOAD PUSH23 0xFFFFFFFFFFFFFFFFFFFFFFFFFFFFFFFFFFFFFFFFFFFFFF NOT AND DUP2 SSTORE PUSH1 0x1 DUP2 ADD DUP1 SLOAD PUSH20 0xFFFFFFFFFFFFFFFFFFFFFFFFFFFFFFFFFFFFFFFF NOT SWAP1 DUP2 AND SWAP1 SWAP2 SSTORE PUSH1 0x2 DUP3 ADD DUP1 SLOAD DUP3 AND SWAP1 SSTORE PUSH1 0x3 DUP3 ADD DUP1 SLOAD SWAP1 SWAP2 AND SWAP1 SSTORE PUSH1 0x0 PUSH1 0x4 DUP3 ADD SSTORE PUSH1 0x9 ADD PUSH2 0x1DAD JUMP JUMPDEST SWAP1 JUMP JUMPDEST PUSH2 0x1E19 SWAP2 SWAP1 JUMPDEST DUP1 DUP3 GT ISZERO PUSH2 0x1D0A JUMPI DUP1 SLOAD PUSH1 0xFF NOT AND DUP2 SSTORE PUSH1 0x1 ADD PUSH2 0x1E22 JUMP JUMPDEST PUSH2 0x1E19 SWAP2 SWAP1 JUMPDEST DUP1 DUP3 GT ISZERO PUSH2 0x1D0A JUMPI PUSH1 0x0 DUP2 SSTORE PUSH1 0x1 ADD PUSH2 0x1E40 JUMP STOP LOG1 PUSH6 0x627A7A723058 KECCAK256 PC 0xd0 CALLER SAR 0xf 0xbf 0xab 0xdc 0x27 0xb6 POP INVALID 0xf6 0xbb 0xf5 COINBASE 0xb2 0xe0 0xfc SLT 0xa6 CREATE2 CALLER 0xca DUP4 0x2b 0xd1 0x22 SUB GAS 0xb2 0xb9 STOP 0x29 "},"methodIdentifiers":{"attack(uint256,uint8)":"9f3aa7f2","counterAttack(uint256,uint8,bool)":"a6b65e44","createGame(uint8,bytes32)":"3efd1403","games(uint256)":"117a5b90","getGameOcean(uint256,address)":"ca6ed7f0","getGameTarget(uint256,address)":"aa5a2aba","getPlayerGames(address)":"129daf84","joinGame(uint256,bytes32)":"ac952671","notSafeMath(uint8,uint8)":"2623cabc","owner()":"8da5cb5b","reveal(uint256,string,string)":"dd224b9c","safeMath(uint8,uint8)":"8dd2937e","toggleEmergency()":"2d1d2744","transferOwnership(address)":"f2fde38b","withdraw(uint256)":"2e1a7d4d"}}}}}