{
  "_format": "hh-sol-artifact-1",
  "contractName": "Battleship",
  "sourceName": "contracts/Battleship.sol",
  "abi": [
    {
      "constant": true,
      "inputs": [
        {
          "name": "",
          "type": "uint256"
        }
      ],
      "name": "games",
      "outputs": [
        {
          "name": "status",
          "type": "uint8"
        },
        {
          "name": "gridSize",
          "type": "uint8"
        },
        {
          "name": "targetIndex",
          "type": "uint8"
        },
        {
          "name": "owner",
          "type": "address"
        },
        {
          "name": "challenger",
          "type": "address"
        },
        {
          "name": "turn",
          "type": "address"
        },
        {
          "name": "winner",
          "type": "address"
        },
        {
          "name": "funds",
          "type": "uint256"
        }
      ],
      "payable": false,
      "stateMutability": "view",
      "type": "function"
    },
    {
      "constant": true,
      "inputs": [
        {
          "name": "player",
          "type": "address"
        }
      ],
      "name": "getPlayerGames",
      "outputs": [
        {
          "name": "",
          "type": "uint256[]"
        }
      ],
      "payable": false,
      "stateMutability": "view",
      "type": "function"
    },
    {
      "constant": true,
      "inputs": [
        {
          "name": "value",
          "type": "uint8"
        },
        {
          "name": "increment",
          "type": "uint8"
        }
      ],
      "name": "notSafeMath",
      "outputs": [
        {
          "name": "",
          "type": "uint8"
        }
      ],
      "payable": false,
      "stateMutability": "pure",
      "type": "function"
    },
    {
      "constant": false,
      "inputs": [],
      "name": "toggleEmergency",
      "outputs": [],
      "payable": false,
      "stateMutability": "nonpayable",
      "type": "function"
    },
    {
      "constant": false,
      "inputs": [
        {
          "name": "gameId",
          "type": "uint256"
        }
      ],
      "name": "withdraw",
      "outputs": [],
      "payable": false,
      "stateMutability": "nonpayable",
      "type": "function"
    },
    {
      "constant": false,
      "inputs": [
        {
          "name": "gridSize",
          "type": "uint8"
        },
        {
          "name": "secret",
          "type": "bytes32"
        }
      ],
      "name": "createGame",
      "outputs": [],
      "payable": true,
      "stateMutability": "payable",
      "type": "function"
    },
    {
      "constant": true,
      "inputs": [],
      "name": "owner",
      "outputs": [
        {
          "name": "",
          "type": "address"
        }
      ],
      "payable": false,
      "stateMutability": "view",
      "type": "function"
    },
    {
      "constant": false,
      "inputs": [
        {
          "name": "value",
          "type": "uint8"
        },
        {
          "name": "increment",
          "type": "uint8"
        }
      ],
      "name": "safeMath",
      "outputs": [
        {
          "name": "",
          "type": "uint8"
        }
      ],
      "payable": false,
      "stateMutability": "nonpayable",
      "type": "function"
    },
    {
      "constant": false,
      "inputs": [
        {
          "name": "gameId",
          "type": "uint256"
        },
        {
          "name": "index",
          "type": "uint8"
        }
      ],
      "name": "attack",
      "outputs": [],
      "payable": false,
      "stateMutability": "nonpayable",
      "type": "function"
    },
    {
      "constant": false,
      "inputs": [
        {
          "name": "gameId",
          "type": "uint256"
        },
        {
          "name": "index",
          "type": "uint8"
        },
        {
          "name": "hit",
          "type": "bool"
        }
      ],
      "name": "counterAttack",
      "outputs": [],
      "payable": false,
      "stateMutability": "nonpayable",
      "type": "function"
    },
    {
      "constant": true,
      "inputs": [
        {
          "name": "gameId",
          "type": "uint256"
        },
        {
          "name": "player",
          "type": "address"
        }
      ],
      "name": "getGameTarget",
      "outputs": [
        {
          "name": "",
          "type": "int8[]"
        }
      ],
      "payable": false,
      "stateMutability": "view",
      "type": "function"
    },
    {
      "constant": false,
      "inputs": [
        {
          "name": "gameId",
          "type": "uint256"
        },
        {
          "name": "secret",
          "type": "bytes32"
        }
      ],
      "name": "joinGame",
      "outputs": [],
      "payable": true,
      "stateMutability": "payable",
      "type": "function"
    },
    {
      "constant": true,
      "inputs": [
        {
          "name": "gameId",
          "type": "uint256"
        },
        {
          "name": "player",
          "type": "address"
        }
      ],
      "name": "getGameOcean",
      "outputs": [
        {
          "name": "",
          "type": "int8[]"
        }
      ],
      "payable": false,
      "stateMutability": "view",
      "type": "function"
    },
    {
      "constant": false,
      "inputs": [
        {
          "name": "gameId",
          "type": "uint256"
        },
        {
          "name": "ships",
          "type": "string"
        },
        {
          "name": "salt",
          "type": "string"
        }
      ],
      "name": "reveal",
      "outputs": [],
      "payable": false,
      "stateMutability": "nonpayable",
      "type": "function"
    },
    {
      "constant": false,
      "inputs": [
        {
          "name": "newOwner",
          "type": "address"
        }
      ],
      "name": "transferOwnership",
      "outputs": [],
      "payable": false,
      "stateMutability": "nonpayable",
      "type": "function"
    },
    {
      "anonymous": false,
      "inputs": [
        {
          "indexed": false,
          "name": "gameId",
          "type": "uint256"
        },
        {
          "indexed": true,
          "name": "owner",
          "type": "address"
        },
        {
          "indexed": false,
          "name": "gridSize",
          "type": "uint8"
        },
        {
          "indexed": false,
          "name": "bet",
          "type": "uint256"
        }
      ],
      "name": "GameCreated",
      "type": "event"
    },
    {
      "anonymous": false,
      "inputs": [
        {
          "indexed": false,
          "name": "gameId",
          "type": "uint256"
        },
        {
          "indexed": true,
          "name": "owner",
          "type": "address"
        },
        {
          "indexed": true,
          "name": "challenger",
          "type": "address"
        },
        {
          "indexed": false,
          "name": "bet",
          "type": "uint256"
        }
      ],
      "name": "GameJoined",
      "type": "event"
    },
    {
      "anonymous": false,
      "inputs": [
        {
          "indexed": false,
          "name": "gameId",
          "type": "uint256"
        },
        {
          "indexed": true,
          "name": "attacker",
          "type": "address"
        },
        {
          "indexed": true,
          "name": "defender",
          "type": "address"
        },
        {
          "indexed": false,
          "name": "index",
          "type": "uint256"
        }
      ],
      "name": "Attack",
      "type": "event"
    },
    {
      "anonymous": false,
      "inputs": [
        {
          "indexed": false,
          "name": "gameId",
          "type": "uint256"
        },
        {
          "indexed": true,
          "name": "attacker",
          "type": "address"
        },
        {
          "indexed": true,
          "name": "defender",
          "type": "address"
        },
        {
          "indexed": false,
          "name": "index",
          "type": "uint256"
        },
        {
          "indexed": false,
          "name": "hit",
          "type": "bool"
        }
      ],
      "name": "AttackResult",
      "type": "event"
    },
    {
      "anonymous": false,
      "inputs": [
        {
          "indexed": false,
          "name": "gameId",
          "type": "uint256"
        },
        {
          "indexed": true,
          "name": "winner",
          "type": "address"
        },
        {
          "indexed": true,
          "name": "opponent",
          "type": "address"
        },
        {
          "indexed": false,
          "name": "void",
          "type": "bool"
        }
      ],
      "name": "GameFinished",
      "type": "event"
    },
    {
      "anonymous": false,
      "inputs": [
        {
          "indexed": false,
          "name": "gameId",
          "type": "uint256"
        },
        {
          "indexed": true,
          "name": "revealer",
          "type": "address"
        },
        {
          "indexed": true,
          "name": "opponent",
          "type": "address"
        },
        {
          "indexed": false,
          "name": "ships",
          "type": "string"
        },
        {
          "indexed": false,
          "name": "void",
          "type": "bool"
        }
      ],
      "name": "GameRevealed",
      "type": "event"
    },
    {
      "anonymous": false,
      "inputs": [
        {
          "indexed": true,
          "name": "previousOwner",
          "type": "address"
        },
        {
          "indexed": true,
          "name": "newOwner",
          "type": "address"
        }
      ],
      "name": "OwnershipTransferred",
      "type": "event"
    }
  ],
  "bytecode": "0x608060405260008054600160a060020a033316600160a860020a0319909116179055611e80806100306000396000f3006080604052600436106100da5763ffffffff7c0100000000000000000000000000000000000000000000000000000000600035041663117a5b9081146100df578063129daf84146101625780632623cabc146101d35780632d1d27441461020a5780632e1a7d4d146102215780633efd1403146102395780638da5cb5b1461024a5780638dd2937e1461027b5780639f3aa7f21461029c578063a6b65e44146102ba578063aa5a2aba146102dd578063ac95267114610301578063ca6ed7f01461030f578063dd224b9c14610333578063f2fde38b146103cf575b600080fd5b3480156100eb57600080fd5b506100f76004356103f0565b6040518089600481111561010757fe5b60ff9081168252988916602082015296909716604080880191909152600160a060020a039586166060880152938516608087015291841660a086015290921660c084015260e083019190915251908190036101000192509050f35b34801561016e57600080fd5b50610183600160a060020a036004351661045d565b60408051602080825283518183015283519192839290830191858101910280838360005b838110156101bf5781810151838201526020016101a7565b505050509050019250505060405180910390f35b3480156101df57600080fd5b506101f460ff600435811690602435166104ca565b6040805160ff9092168252519081900360200190f35b34801561021657600080fd5b5061021f6104ce565b005b34801561022d57600080fd5b5061021f60043561052c565b61021f60ff6004351660243561062b565b34801561025657600080fd5b5061025f6108d7565b60408051600160a060020a039092168252519081900360200190f35b34801561028757600080fd5b506101f460ff600435811690602435166108e6565b3480156102a857600080fd5b5061021f60043560ff60243516610906565b3480156102c657600080fd5b5061021f60043560ff6024351660443515156109d6565b3480156102e957600080fd5b50610183600435600160a060020a0360243516610d5e565b61021f600435602435610e0e565b34801561031b57600080fd5b50610183600435600160a060020a0360243516611126565b34801561033f57600080fd5b5060408051602060046024803582810135601f810185900485028601850190965285855261021f95833595369560449491939091019190819084018382808284375050604080516020601f89358b018035918201839004830284018301909452808352979a9998810197919650918201945092508291508401838280828437509497506111e59650505050505050565b3480156103db57600080fd5b5061021f600160a060020a0360043516611809565b60018054829081106103fe57fe5b60009182526020909120600990910201805460018201546002830154600384015460049094015460ff8085169650610100850481169562010000860490911694600160a060020a03630100000090910481169481169381169291169088565b600160a060020a0381166000908152600260209081526040918290208054835181840281018401909452808452606093928301828280156104bd57602002820191906000526020600020905b8154815260200190600101908083116104a9575b505050505090505b919050565b0190565b60005433600160a060020a039081169116146104e957600080fd5b6000805474ff0000000000000000000000000000000000000000198116740100000000000000000000000000000000000000009182900460ff1615909102179055565b6000816004600180548390811061053f57fe5b600091825260209091206009909102015460ff16600481111561055e57fe5b1461056857600080fd5b33600160a060020a031660018281548110151561058157fe5b6000918252602090912060036009909202010154600160a060020a0316146105a857600080fd5b60018054849081106105b657fe5b906000526020600020906009020160040154915060006001848154811015156105db57fe5b60009182526020822060046009909202010191909155604051600160a060020a0333169184156108fc02918591818181858888f19350505050158015610625573d6000803e3d6000fd5b50505050565b6000805474010000000000000000000000000000000000000000900460ff161561065457600080fd5b506001805490819061066890828101611c34565b50600060018281548110151561067a57fe5b60009182526020909120600990910201805460ff1916600183600481111561069e57fe5b0217905550826001828154811015156106b357fe5b906000526020600020906009020160000160016101000a81548160ff021916908360ff160217905550336001828154811015156106ec57fe5b906000526020600020906009020160000160036101000a815481600160a060020a030219169083600160a060020a031602179055503360018281548110151561073157fe5b906000526020600020906009020160020160006101000a815481600160a060020a030219169083600160a060020a031602179055508160018281548110151561077657fe5b9060005260206000209060090201600501600033600160a060020a0316600160a060020a0316815260200190815260200160002081600019169055506002830a60ff166040519080825280602002602001820160405280156107e2578160200160208202803883390190505b5060018054839081106107f157fe5b9060005260206000209060090201600701600033600160a060020a0316600160a060020a031681526020019081526020016000209080519060200190610838929190611c65565b503460018281548110151561084957fe5b6000918252602080832060046009909302019190910192909255600160a060020a033316808252600283526040808320805460018101825590845292849020909201849055815184815260ff8716938101939093523483830152905190917fce7afad46ab3446a50492edf65c62119da1a4def9df32e797c96b27a9470f411919081900360600190a2505050565b600054600160a060020a031681565b60006108fe60ff84811690841663ffffffff6118a116565b509192915050565b60008260018080548390811061091857fe5b600091825260209091206009909102015460ff16600481111561093757fe5b1461094157600080fd5b8360018181548110151561095157fe5b600091825260209091206002600990920201015433600160a060020a0390811691161461097d57600080fd5b61098785336118b7565b9250600260018681548110151561099a57fe5b60009182526020909120600990910201805460ff191660018360048111156109be57fe5b02179055506109cf8533858761195e565b5050505050565b6000806109e1611d0e565b6000808088600260018054839081106109f657fe5b600091825260209091206009909102015460ff166004811115610a1557fe5b14610a1f57600080fd5b89600181815481101515610a2f57fe5b600091825260209091206002600990920201015433600160a060020a03908116911614610a5b57600080fd5b610a658b336118b7565b975060018b815481101515610a7657fe5b600091825260209091206009909102015462010000900460ff16965088610a9f57600019610aa2565b60015b600180548d908110610ab057fe5b60009182526020808320600160a060020a038d168452600760099093020191909101905260409020805460ff8a16908110610ae757fe5b90600052602060002090602091828204019190066101000a81548160ff021916908360000b60ff16021790555033600160a060020a031688600160a060020a03167fa2315efec4d5e20b003e5d4f3f3b4482c0ff24139c531e2295053e20611b44a08d8a8d604051808481526020018360ff16815260200182151515158152602001935050505060405180910390a3610b828b338a8d61195e565b610c3060018c815481101515610b9457fe5b60009182526020808320600160a060020a038d168452600760099093020191909101815260409182902080548351818402810184019094528084529091830182828015610c2657602002820191906000526020600020906000905b82829054906101000a900460000b60000b81526020019060010190602082600001049283019260010382029150808411610bef5790505b5050505050611a2d565b9550610c6260018c815481101515610c4457fe5b6000918252602090912060099091020154610100900460ff16611aed565b60208701516040880151919650808714955086031192508380610c825750825b15610d5157600360018c815481101515610c9857fe5b60009182526020909120600990910201805460ff19166001836004811115610cbc57fe5b02179055508760018c815481101515610cd157fe5b600091825260209182902060099190910201600301805473ffffffffffffffffffffffffffffffffffffffff1916600160a060020a03938416179055604080518e8152861515928101929092528051338416938c16927f705a40d86da29e8665f1e99fbdfad678c2a87a93ac9bcd3d8b8a288c917b64b192908290030190a35b5050505050505050505050565b6060600183815481101515610d6f57fe5b60009182526020808320600160a060020a0386168452600760099093020191909101815260409182902080548351818402810184019094528084529091830182828015610e0157602002820191906000526020600020906000905b82829054906101000a900460000b60000b81526020019060010190602082600001049283019260010382029150808411610dca5790505b5050505050905092915050565b60005474010000000000000000000000000000000000000000900460ff1615610e3657600080fd5b8160006001805483908110610e4757fe5b600091825260209091206009909102015460ff166004811115610e6657fe5b14610e7057600080fd5b33600160a060020a0316600184815481101515610e8957fe5b600091825260209091206009909102015463010000009004600160a060020a03161415610eb557600080fd5b34600184815481101515610ec557fe5b906000526020600020906009020160040154141515610ee357600080fd5b60018084815481101515610ef357fe5b60009182526020909120600990910201805460ff19166001836004811115610f1757fe5b021790555033600184815481101515610f2c57fe5b906000526020600020906009020160010160006101000a815481600160a060020a030219169083600160a060020a0316021790555081600184815481101515610f7157fe5b60009182526020808320600160a060020a033316845260056009909302019190910190526040902055600180546002919085908110610fac57fe5b906000526020600020906009020160000160019054906101000a900460ff160a60ff16604051908082528060200260200182016040528015610ff8578160200160208202803883390190505b50600180548590811061100757fe5b9060005260206000209060090201600701600033600160a060020a0316600160a060020a03168152602001908152602001600020908051906020019061104e929190611c65565b503460018481548110151561105f57fe5b600091825260208083206004600990930201919091018054909301909255600160a060020a0333168082526002835260408220805460018181018355918452939092209092018590558054859081106110b457fe5b906000526020600020906009020160000160039054906101000a9004600160a060020a0316600160a060020a03167fb1ac9c5d841dda39836a3b9dc15b1f0081b3dbbd0eeebca5667f8efe05af38da8534604051808381526020018281526020019250505060405180910390a3505050565b6060600061113484846118b7565b905060018481548110151561114557fe5b60009182526020808320600160a060020a03851684526007600990930201919091018152604091829020805483518184028101840190945280845290918301828280156111d757602002820191906000526020600020906000905b82829054906101000a900460000b60000b815260200190600101906020826000010492830192600103820291508084116111a05790505b505050505091505092915050565b600060608180808088600360018054839081106111fe57fe5b600091825260209091206009909102015460ff16600481111561121d57fe5b1461122757600080fd5b8960018181548110151561123757fe5b600091825260209091206009909102015433600160a060020a0390811663010000009092041614806112965750600180548290811061127257fe5b600091825260209091206001600990920201015433600160a060020a039081169116145b15156112a157600080fd5b8a6001818154811015156112b157fe5b60009182526020808320600160a060020a03331684526006600990930201919091019052604090205460026000196101006001841615020190911604156112f757600080fd5b6113018b8b611b1f565b985060018c81548110151561131257fe5b60009182526020808320600160a060020a033316845260056009909302019190910190526040902054891461134657600080fd5b8a9750600096506113578c336118b7565b9550600094505b87518510156114f457878581518110151561137557fe5b9060200101517f010000000000000000000000000000000000000000000000000000000000000090047f0100000000000000000000000000000000000000000000000000000000000000027effffffffffffffffffffffffffffffffffffffffffffffffffffffffffffff19167f3000000000000000000000000000000000000000000000000000000000000000141561140e576114e9565b600180548d90811061141c57fe5b60009182526020808320600160a060020a038a16845260076009909302019190910190526040902080548690811061145057fe5b600091825260208083209082040154601f9091166101000a9004810b900b1515611479576114e9565b6001805481908e90811061148957fe5b60009182526020808320600160a060020a038b1684526007600990930201919091019052604090208054879081106114bd57fe5b600091825260208083209082040154601f9091166101000a9004810b900b14801597506114e9576114f4565b60019094019361135e565b8a60018d81548110151561150457fe5b9060005260206000209060090201600601600033600160a060020a0316600160a060020a03168152602001908152602001600020908051906020019061154b929190611d2d565b508660018d81548110151561155c57fe5b6000918252602080832033600160a060020a03168452600992909202909101600801905260408120805460ff191692151592909217909155600180548e9081106115a257fe5b60009182526020808320600160a060020a038b1684526006600990930201919091019052604090205460026000196101006001841615020190911604119350831561162257600460018d8154811015156115f857fe5b60009182526020909120600990910201805460ff1916600183600481111561161c57fe5b02179055505b861561173a5733600160a060020a031660018d81548110151561164157fe5b6000918252602090912060036009909202010154600160a060020a031614156116ab57600060018d81548110151561167557fe5b906000526020600020906009020160030160006101000a815481600160a060020a030219169083600160a060020a031602179055505b8380156116ef5750600180548d9081106116c157fe5b60009182526020808320600160a060020a038a1684526008600990930201919091019052604090205460ff16155b1561173a578560018d81548110151561170457fe5b906000526020600020906009020160030160006101000a815481600160a060020a030219169083600160a060020a031602179055505b85600160a060020a031633600160a060020a03167f465939a9cb0bde2fcec8c88d9f99ed138c947e027d3e1ddfe4159b6ed5adcd128e8e8b604051808481526020018060200183151515158152602001828103825284818151815260200191508051906020019080838360005b838110156117bf5781810151838201526020016117a7565b50505050905090810190601f1680156117ec5780820380516001836020036101000a031916815260200191505b5094505050505060405180910390a3505050505050505050505050565b60005433600160a060020a0390811691161461182457600080fd5b600160a060020a038116151561183957600080fd5b60008054604051600160a060020a03808516939216917f8be0079c531659141344cd1fd0a4f28419497f9722a3daafe3b4186f6b6457e091a36000805473ffffffffffffffffffffffffffffffffffffffff1916600160a060020a0392909216919091179055565b6000828201838110156118b057fe5b9392505050565b600081600160a060020a03166001848154811015156118d257fe5b600091825260209091206009909102015463010000009004600160a060020a03161461192c57600180548490811061190657fe5b600091825260209091206009909102015463010000009004600160a060020a03166118b0565b600180548490811061193a57fe5b6000918252602090912060016009909202010154600160a060020a03169392505050565b8060018581548110151561196e57fe5b906000526020600020906009020160000160026101000a81548160ff021916908360ff160217905550816001858154811015156119a757fe5b600091825260209182902060099190910201600201805473ffffffffffffffffffffffffffffffffffffffff1916600160a060020a039384161790556040805187815260ff8516928101929092528051858416938716927fc95238986bf335b5875cdc0a5b57b3c76a36f058a3e3cc60d1ba023b3ea175f792908290030190a350505050565b611a35611d0e565b60008080805b8551811015611acd57855160001990879083908110611a5657fe5b9060200190602002015160000b1415611a70576001909301925b8551600190879083908110611a8157fe5b9060200190602002015160000b1415611a9b576001909201915b8581815181101515611aa957fe5b9060200190602002015160000b60001415611ac5576001909101905b600101611a3b565b506040805160608101825293845260208401929092529082015292915050565b600060ff821660031415611b03575060026104c5565b60ff821660051415611b17575060086104c5565b506011919050565b600082826040516020018083805190602001908083835b60208310611b555780518252601f199092019160209182019101611b36565b51815160209384036101000a600019018019909216911617905285519190930192850191508083835b60208310611b9d5780518252601f199092019160209182019101611b7e565b6001836020036101000a038019825116818451168082178552505050505050905001925050506040516020818303038152906040526040518082805190602001908083835b60208310611c015780518252601f199092019160209182019101611be2565b5181516020939093036101000a600019018019909116921691909117905260405192018290039091209695505050505050565b815481835581811115611c6057600902816009028360005260206000209182019101611c609190611da7565b505050565b82805482825590600052602060002090601f01602090048101928215611cfe5791602002820160005b83821115611ccf57835183826101000a81548160ff021916908360000b60ff1602179055509260200192600101602081600001049283019260010302611c8e565b8015611cfc5782816101000a81549060ff0219169055600101602081600001049283019260010302611ccf565b505b50611d0a929150611e1c565b5090565b6060604051908101604052806003906020820280388339509192915050565b828054600181600116156101000203166002900490600052602060002090601f016020900481019282601f10611d6e57805160ff1916838001178555611d9b565b82800160010185558215611d9b579182015b82811115611d9b578251825591602001919060010190611d80565b50611d0a929150611e3a565b611e1991905b80821115611d0a57805476ffffffffffffffffffffffffffffffffffffffffffffff1916815560018101805473ffffffffffffffffffffffffffffffffffffffff1990811690915560028201805482169055600382018054909116905560006004820155600901611dad565b90565b611e1991905b80821115611d0a57805460ff19168155600101611e22565b611e1991905b80821115611d0a5760008155600101611e405600a165627a7a7230582058d0331d0fbfabdc27b650fef6bbf541b2e0fc12a6fb33ca832bd122035ab2b90029",
  "linkReferences": {},
  "deployedLinkReferences": {}
}